:020000040800F2
:10000000D8110020C102000871280008C9020008A8
:100010006928000829070008E13E000800000000E8
:10002000000000000000000000000000E1340008B3
:10003000B10800080000000029330008313500082D
:10004000F1020008F1020008F1020008F1020008C4
:10005000F1020008F1020008F1020008F1020008B4
:10006000F1020008F1020008F1020008F1020008A4
:10007000F1020008F1020008F1020008F102000894
:10008000F1020008F1020008F1020008F102000884
:10009000F1020008F1020008F1020008F102000874
:1000A000F1020008F1020008F1020008F102000864
:1000B000F1020008F1020008F1020008F102000854
:1000C000F1020008F1020008F1020008F102000844
:1000D000F1020008F1020008F1020008F102000834
:1000E000F1020008F1020008F1020008F102000824
:1000F000F1020008F1020008F1020008F102000814
:10010000F1020008F1020008F1020008F102000803
:10011000F1020008F1020008F1020008F1020008F3
:10012000F1020008F1020008F1020008F1020008E3
:10013000F10200080000000000000000F1020008C9
:10014000F1020008F1020008F1020008F1020008C3
:10015000F1020008F1020008F1020008F1020008B3
:10016000F1020008F1020008F1020008F1020008A3
:10017000F1020008F1020008F1020008000000008E
:10018000F1020008F1020008F1020008F102000883
:10019000F1020008F1020008F1020008F102000873
:1001A000F1020008F1020008F1020008F102000863
:1001B000F1020008F1020008F1020008F102000853
:1001C000F1020008F1020008000000000000000039
:1001D0000000000000000000F10200080000000024
:1001E000000000000000000000000000000000000F
:1001F0000000000000000000F1020008F102000809
:10020000F1020008F102000800000000F1020008FD
:10021000F1020008F1020008F1020008F1020008F2
:10022000F1020008F1020008F102000800000000DD
:10023000F1020008F102000800000000F1020008CD
:10024000F1020008F1020008F1020008F1020008C2
:10025000F1020008F1020008F1020008F1020008B2
:10026000F1020008F1020008F1020008F1020008A2
:10027000F1020008F1020008F1020008000000008D
:10028000F1020008F102000800000000F10200087D
:1002900000000000F1020008F10200080000000068
:1002A00000000000F1020008F1020008DFF80CD0A5
:1002B00000F086F800480047E9400008D811002007
:1002C0000C4880470C4800471EF0040F0CBFEFF3AA
:1002D0000880EFF3098021462A46334603F034BEF6
:1002E000FEE7FEE7FEE7FEE7FEE7FEE7FEE7FEE7E6
:1002F000FEE7000011360008AD0200082DE9F05FAE
:100300000546002092469B46884606468146402484
:100310001BE0284641464746224600F041F8534636
:100320005A46C01A914110D311461846224600F091
:1003300028F82D1A67EB01084F46224601200021BC
:1003400000F01FF817EB00094E41201EA4F1010434
:10035000DFDC484631462A464346BDE8F09FD2B22C
:1003600001E000F8012B491EFBD270470022F6E79E
:1003700010B513460A4604461946FFF7F0FF20461B
:1003800010BD202A04DB203A00FA02F10020704759
:100390009140C2F1200320FA03F3194390407047C3
:1003A000202A04DB203A21FA02F00021704721FACA
:1003B00002F3D040C2F12002914008431946704731
:1003C000064C074D06E0E06840F0010394E80700A2
:1003D00098471034AC42F6D3FFF76CFFE44A0008AC
:1003E000044B00080000000010B540F2680445F21C
:1003F0000000C2F20004C5F200202060204601F097
:1004000057F8204600F038F80420606000201B21D7
:10041000C4E9020021610221C4E90510C4E9070012
:100420000521C4E90910C4E90B0001F041FC616A2F
:100430000131B0FBF1F04DF68361C4F21B31A0FB3A
:10044000010107A0890C03F03BFF204601F044F8AE
:1004500000281CBF012010BD02F0BAFB002010BD17
:100460004253505F4F5350495F496E6974202533A2
:1004700064204D487A0A00002DE9F04F8DB044F217
:1004800040514FF0000AC5F60201CDF830A0CDE989
:100490000AAACDE908AACDE906AACDE904AACDE9C0
:1004A00002AA51F80C2C40F2004642F4804241F876
:1004B0000C2C51F80C2CC5F6020602F48042019275
:1004C000019A51F80C2C42F4001241F80C2C51F80E
:1004D0000C2C08AD02F400120192019A51F8C42CC0
:1004E00042F4804241F8C42C51F8C42C804622F4D6
:1004F000804241F8C42C0A68402042F002020A609F
:100500000A684FF0010902F002020192019A0A689A
:1005100042F002020A600A6802F002020192019AA5
:100520000A6842F004020A600A6802F004020192BA
:10053000019A0A6842F008020A600A6802F008029A
:100540000192019A0A6842F010020A600A6802F0F9
:1005500010020192019A0A6842F008020A600968D2
:1005600001F0080101910199022109910B9129469D
:1005700008900A200C903046CDF8289000F078FBC7
:1005800030462946CDF828A04FF0040BCDF820B016
:1005900009240C9400F06CFB0820089006F580609C
:1005A00029460C9400F064FB06F500674FF4805078
:1005B0000890384629460C9400F05AFB06F5406036
:1005C0002946CDF820B00C9400F052FB4FF40050B7
:1005D0000890384629460C9400F04AFB4FF0011071
:1005E000059002A941F288324046CDF81090CDF82E
:1005F0000890CDF818A000F09FFC0DB0BDE8F08F7A
:10060000F0B595B001AD0F46044650212846164678
:10061000FFF7ACFE40F2C8000321C2F200004FF029
:100620004072006800284FF4407004BF01214FF46D
:10063000807004914FF0080108BF4FF0807208905D
:100640000B200F9241F2883203904FF40050099032
:1006500027F07F4007900020CDE905000A900C901C
:10066000CDE91060CDE91210149040F26800C2F29A
:100670000000294600F0B4FE10B1012015B0F0BD15
:1006800040F2680041F28832C2F20000214600F0D8
:10069000B7FF002818BF012015B0F0BD0000000012
:1006A0002DE9F04194B06E460C468046502130460C
:1006B0001746FFF75BFE012503954FF48070079006
:1006C0003B2002904FF40050089024F07F400690A9
:1006D00000204FF00071CDE90400099041F288320A
:1006E0000B900E910821CDE90F70CDE911101390F8
:1006F00040F26800C2F20000314600F071FE60B9BD
:1007000040F2680041F28832C2F20000414600F037
:1007100077FF0546002818BF0125284614B0BDE81C
:10072000F081000000000000FEE700000000000073
:1007300010B54EF6005041F20001CEF20000C5F6B1
:10074000004104680A686FF31F320868030C22A096
:10075000214603F0B5FD04F07F40B0F1824F16D181
:10076000C4F30B1304F00F02C4F30351A3F542606A
:10077000072810D8DFE800F0042019242819192CC4
:1007800044F6A000C0F6000003F09AFD10BD1BA0C7
:1007900003F0EAFF10BDB3F5466F06D144F68D00B5
:1007A000C0F6000003F08CFD10BD44F62420C0F616
:1007B000000003F0D9FF10BD26A003F081FD10BD9D
:1007C0001FA003F07DFD10BD18A003F079FD10BD42
:1007D00011A003F075FD10BD43505549442025304C
:1007E0003858204445564944202530335820524536
:1007F00056494420253034580A000000556E6B6E6F
:100800006F776E20434F524520494D504C454D4522
:100810004E54455200000000436F72746578204DBD
:1008200037207225647025640A000000436F7274DB
:100830006578204D34207225647025640A0000001C
:10084000436F72746578204D33207225647025647F
:100850000A000000436F72746578204D31207225C4
:10086000647025640A00000080B502F021FE02F0E9
:10087000EFFD80BD00000000002908BF704744F272
:100880008C7C013AC0F6000C12F8013F013980EA75
:10089000030000F00F035CF8233083EA101000F02F
:1008A0000F035CF8233083EA1010EDD1704700008D
:1008B00070470000000000002DE9F041002808BF4B
:1008C000BDE8F08140F2180807460D460026C2F246
:1008D000000800BF3C46102F28BF102430462A468F
:1008E000214600F009F8404602F00EFD3F1B25446A
:1008F0002644EFD1BDE8F081F0B581B044F6312354
:10090000060FC0F30364C0F60003C0F30355174697
:1009100013F806C040F21806C2F200061C5DC0F3D0
:1009200003127470C0F3034486F800C013F805C0C6
:10093000C0F303351C5DF4700C46C0F3032100F0D6
:100940000F0086F802C013F805C0595C185C71717D
:10095000995C86F804C0B171F07143F620203081B3
:100960004FF02000B0720CB306F1080061424FF066
:10097000FF3200BFBE18062A02F1010275784FEA65
:1009800015155D5D00F8035F01EB0205767806F052
:100990000F069E5D46704FF0200608BF2D260135DC
:1009A0008670E7D1C61C0F2C03D911E00B360F2C33
:1009B0000ED8A4EB8400202200F130013046FFF76E
:1009C000CEFCA4F1100000BF013006F10306FBD3FA
:1009D00074B1701E791E00BF11F8012FA2F120031F
:1009E0005F2B28BF2E22013C00F8012FF4D1461CBA
:1009F00040F60D20308040F218000021C2F20000C5
:100A0000B17001B0F0BD0000B0B582B001AC002003
:100A1000214602F04DFB44F60B050199C0F6000596
:100A2000284603F04DFC0120214602F041FB0199CC
:100A30001EA003F045FC0220214602F039FB01997B
:100A40001EA003F03DFC0320214602F031FB01997A
:100A50001EA003F035FC0420214602F029FB019979
:100A600020A003F02DFC0520214602F021FB019976
:100A700021A003F025FC0620214602F019FB019974
:100A800021A003F01DFC0720214602F011FB019973
:100A900022A003F015FC0020214602F009FB019979
:100AA000284603F00DFC02B0B0BD00BF57205245F0
:100AB0004720253032582023320A00005720524563
:100AC0004720253032582023330A00005720524552
:100AD00047202530325820464C414720535441543A
:100AE00055530A0057205245472025303258204E92
:100AF0004F4E20564F4C0A00572052454720253074
:100B0000325820564F4C0A00572052454720253076
:100B1000325820454E4820564F4C0A005720524527
:100B2000472025303258204750520A00000000006C
:100B300002A003F019FE00BFFEE700BF4572726F0E
:100B4000725F48616E646C65720000000000000016
:100B500010B584B04EF64074CEF2000454F80C1C6C
:100B600054F8082C54F8043C2068D4F804C0D4F895
:100B700008E0CDE9000C0EA0CDF808E003F0A0FBE2
:100B8000206860B140F22121C1F21101884208D0F1
:100B90002121C1F21101884205D11AA004E00CA064
:100BA00002E00DA000E01EA003F0DEFD04B010BDC9
:100BB00025303858202530385820253038580A2517
:100BC000303858202530385820253038580A000051
:100BD0004E6F2046505500004650552D4420536915
:100BE0006E676C652D707265636973696F6E2061E5
:100BF0006E6420446F75626C652D707265636973F5
:100C0000696F6E004650552D532053696E676C65B1
:100C10002D707265636973696F6E206F6E6C7900F9
:100C2000556E6B6E6F776E204650550000000000C9
:100C3000B0B5044600F0F0F840F20C010546C2F2EF
:100C40000001621C096818BF0C4400BF00F0E4F802
:100C5000401BA042FAD3B0BD40F22040C5F60000D0
:100C6000016841F0010101607047000000000000D0
:100C70002DE9F04F83B00E68002E00F0C98000F11E
:100C800026420A2302F1FF7240F2040C4FEAB2221C
:100C9000019242F20042C5F6000CC5F602024FF086
:100CA000010B90424FF0000508BF092300274FF0C9
:100CB000010800930AE000BF0E68043736FA08F214
:100CC00008F1010805F1020500F0A280A8F1010A6F
:100CD0000BFA0AF216EA0209EED04E68122E17D865
:100CE0000BFA06F414F0061F12D00323D0F808E024
:100CF000AB40CC682EEA0303AC4023438360C6F3C9
:100D00000014436823EA020204FA0AF31A43426019
:100D10000323C268AB4046F010046FEA030E9A4307
:100D20008B68122C03FA05F342EA0302C26012D167
:100D30006FF0030207F01C0402EA5A020F26024475
:100D4000A640136AD1F810B0B3430BFA04F44FF085
:100D5000010B2343136202684B6803F0030402EAA9
:100D60000E02AC40DB0042EA04020260A4D544F269
:100D70005453C5F602031A6842F002021A601A6858
:100D800007F00C0302F002020292029A2AF0030218
:100D900040F2084A019C009EC5F6000A092C38BFA3
:100DA00026460F2452F80AE09C402EEA040406FA74
:100DB00003F3234342F80A30DCF87C204B6842EA14
:100DC0000906DC0358BF22EA09069C034FF0B04E27
:100DD000CCF87C60DCF8802042EA090658BF22EAA1
:100DE0000906DC02CCF88060DEF8002042EA090641
:100DF00058BF22EA09069B02CEF80060DCF800200A
:100E000042EA090658BF22EA0906CCF8006053E717
:100E100003B0BDE8F08F000040F2D010C2F2000035
:100E2000006870470000000040F20C0040F2D01152
:100E3000C2F20000C2F2000100680A6810440860B3
:100E4000704700000000000080B5032000F070F83B
:100E500000F07EFF44F2184144F2CC73C5F6020163
:100E6000C0F600030A68096801F00F01C2F303220B
:100E7000595C9A5C01F01F0102F01F02D04040F261
:100E80000802C2F2000220FA01F1116040F20401EE
:100E9000C2F2000108600F2000F00AF800281CBF11
:100EA000012080BD00F030F8002080BD000000006F
:100EB000B0B540F20C01C2F20001096801B304466A
:100EC00040F20400C2F200004FF47A72B2FBF1F17A
:100ED0000068B0FBF1F001F0E7FA0F2C4FF00105CC
:100EE0000CD858B94FF0FF3000222146002500F001
:100EF0000FF840F21000C2F2000004602846B0BDB6
:100F00000120B0BD0000000070470000000000009C
:100F100070B514460D46064602F0E6FF2946224605
:100F200001F0AAFC0146304602F0E6FF70BD000069
:100F300080B502F0F5FF80BD2DE9F04F8DB006467B
:100F400045F20000C5F200208B46D6F80090002440
:100F5000B9EB000501AF4FF001084FF0080A18BFC8
:100F6000012500BF5FFA88F0394601F09DFC08F1C9
:100F7000010800281CBFC6F858A00124B8F1030FCF
:100F800007F11807EED1002C40F0C98145F20008A6
:100F9000C5F20028A9EB0802D8F80000C00702D16A
:100FA0004FF0000E07E0D8F800004FF0010E20F0DF
:100FB0000100C8F800004AF2000C0DF1040AC5F265
:100FC000002CDCF80030DB07B2FA82F307D0DCF843
:100FD00000200EF1020E22F00102CCF8002005EBF9
:100FE00045066FF003055B090AEBC607BA6805EB17
:100FF00082054BF20442C5F20022A95821F4807107
:10100000A95052F8041CC90726D15AF83660002EA0
:101010004FD002EB860151F8046C26F0010641F82E
:10102000046C796802EB810151F8046C26F010061B
:1010300041F8046CF968012626EA010152F82150B2
:1010400025F4803542F82150396926EA010152F829
:10105000217027F080772AE052F8041CC14521F066
:10106000010142F8041C24D1079902EB810151F8D7
:10107000047C47F0020741F8047C089902EB8101E7
:1010800051F8047C47F0200741F8047C0A990127B5
:1010900027EA010152F8216046F4802642F82160D7
:1010A0000B9927EA010152F8217047F0806742F856
:1010B000217003EB4303DBF800605AF83370BE4243
:1010C00017D00AEBC305DBF80410686881420ED024
:1010D000DBF80800A968884209D0DBF80C00E96851
:1010E000884204D0DBF810002969884248D1BE420A
:1010F00017D10AEBC306DBF804007168884210D1EF
:10110000DBF80C00F16888420BD1DBF81000316984
:10111000884206D152F8040C40F0010042F8040C59
:101120002EE002EB87000AEBC30350F8041C21F009
:10113000010140F8041C586802EB800050F8041CC0
:1011400021F0100140F8041C986802EB800050F870
:10115000041C21F4807140F8041CD868012121EAA4
:10116000000052F8205025F4803542F820501869CC
:1011700021EA000052F8201021F0807142F820107E
:10118000DBF808004FF44071C14502EB800050F8D5
:10119000043C08BF4FF4807123F44073194440F8B5
:1011A000041CDBF8143052F8040C591EC0F307403D
:1011B00081420BD9002152F8040CCFF6FF7120F4C4
:1011C0007F0001EB0341084342F8040C52F8040C81
:1011D000DBF800104B1EC00752F8231021F0030764
:1011E0004AD10320C14508BF01203021C14540EA52
:1011F000070042F82300DBF804004FF0A0654FF42D
:10120000A02602EB800050F8043C08BF102123F018
:101210002003C14541EA030140F8041CDBF80C003F
:101220004FF0010300F4803123EA000004BF4FF0C7
:1012300080754FF4803600296FF4E02108BF6FF00D
:10124000E06152F8207008BF2E463940314342F821
:101250002010DBF8100023EA0001C00302EB810339
:1012600052F821203CD44FF0E06022F0E061C1450B
:1012700008BF4FF040703BE047F0010042F8230008
:10128000DBF8040001234FF4803502EB800050F8B6
:10129000041C63F3051140F8041CDBF80C0010F487
:1012A000803123EA00006FF4E02108BF6FF0E061B5
:1012B00052F8206008BF4FF080753140294342F852
:1012C0002010DBF8100023EA0001C0034FF00300F8
:1012D00002EB810352F821200CD460F31A620BE078
:1012E0004FF4E020C14508BF4FF4403022F4E02124
:1012F0000A1801E060F312425FEACE701A6005D06E
:10130000D8F8000040F00100C8F800005FEA8E70D5
:1013100005D5DCF8000040F00100CCF800002046C4
:101320000DB0BDE8F08F00002DE9F04381B0154607
:101330000F460446FFF770FD2168D1F84880D1F8C8
:101340001091616D04290ED10646F868B0F5800F42
:1013500009D12021002220463346009501F0F8FEF5
:1013600040B1012502E001251020A065284601B00A
:10137000BDE8F0832068D4F80CC0D7E90023D7E992
:10138000021EC0F88820BCF1806FC0F880303A6936
:10139000C0F89020026822F0435241EA020141EA7B
:1013A0000E0141F00051016004D0D0F8001111F499
:1013B000E06F02D0C0F8488001E0C0F81091082129
:1013C00001222046334600950827012501F0C0FE82
:1013D0000028CBD120680025476202206065C5E760
:1013E0002DE9F04182B015460F460446FFF714FD83
:1013F000616D0646242912D0142909D0022921D171
:10140000E068B0F1806F0FD1242908D0142919D1D8
:10141000386820F00100022806D0242912D138684B
:1014200040F0020003280DD120210022204633463F
:1014300000954FF0000801F08BFE48B1012002B08A
:10144000BDE8F0811020A065012002B0BDE8F08168
:1014500020463946C4F8588001F0D6FA0028F4D165
:10146000B86B30B13868022815D001280ED0C8B941
:1014700014E002210122204633460095022501F0A6
:1014800067FE21684D6202B0BDE8F081606D2428DE
:1014900004D0142005E0606D142801D1042000E080
:1014A00024206065002002B0BDE8F081000000004B
:1014B00080B110B504460068016821F001010160A7
:1014C000816821F002018160204600F091F800203F
:1014D000606510BD0120704770B582B00446FFF70B
:1014E0009BFC002C4CD006460020A065616D0029B5
:1014F00044D1204600F080F841F28831204600F0C7
:10150000DBF820684FF68405D4E903C2636981687B
:10151000CFF6E0056FF0FF0E29400025CFF6FF75EE
:1015200041EA0C0105EB0242656B0EEB032311430C
:101530001943A26B41EA0511E36911431943816024
:10154000C168226A21F4E02133461143C160216B56
:10155000E26B42EA01410161216C4161016862680C
:1015600021F4F8510EEB022211430160E06D2021BD
:1015700000220090204601F0EBFD20B102B070BDCA
:10158000012002B070BD2068636AA168013BA269B6
:10159000C66826F0FF06022A43EA0603C360036812
:1015A00023F0400341EA03010160D0F8081121F063
:1015B000A041D4E90A3641EA030141EA0601C0F834
:1015C0000811016841F00101016003D1816841F017
:1015D00002018160E068B0F1806F01D1012000E07C
:1015E00002206065002002B070BD00000000000015
:1015F000704700000000000070470000000000007D
:101600002DE9F04182B090460F460446FFF704FCF6
:1016100025680646A86CD5F81011C7B1626D042A7A
:1016200019D12A6C01230132E264E26CA26467647E
:101630002A6863F31D722A60E268B2F1806F04D0F9
:10164000D5F8002112F4E06F09D0A86409E0082061
:10165000A06501272BE001271020A06527E0C5F831
:10166000101101270621012220463346CDF80080C3
:1016700001F06EFDD8B995F85000616C0870606C8F
:10168000E16C01306064481EE064E06C0028E9D140
:101690000221012220463346CDF800800225012791
:1016A00001F056FD18B92068002745626565384687
:1016B00002B0BDE8F081000002460020D16570470D
:1016C0002DE9F04182B090460F460446FFF7A4FB97
:1016D000B7B306462568606D042835D1286C013003
:1016E000E064E06CA06467640127286820F0405043
:1016F000286000BF0421012220463346CDF8008037
:1017000001F026FD18BB606C007885F85000606C15
:10171000E16C01306064481EE064E06C0028E9D1AF
:101720000221012220463346CDF800800225012700
:1017300001F00EFD58B9206800274562656506E096
:101740000820A065012702E001271020A065384687
:1017500002B0BDE8F081000070B544F60C06044606
:10176000C5F602063168306801F00701062913D179
:1017700020F03F0020433060FFF74EFB054600BFDE
:1017800056F8080C80040DD4FFF746FB401BB0F55B
:101790007A7FF5D9012070BD00F03F00001B18BF13
:1017A000012070BDA4F11D010020112912D80122D1
:1017B00002FA01F111F0031F0CD0FFF72DFB0446D4
:1017C0003068C00307D4FFF727FB001BB0F57A7F12
:1017D000F6D9012070BD002070BD0000000000009F
:1017E00080B500F065FA44F2204144F2CC72C5F6AF
:1017F0000201C0F600020968C1F30211515C01F058
:101800001F01C84080BD000080B544F2384EC5F6C7
:10181000020E5EF8103C5EF8101CC1F3053C5EF849
:101820000C1CBCF1000FDEF8042014D0C1F3001131
:10183000C2F3CC02514300EE101A03F00301022957
:10184000B8EE400A0CD071B95EF8381C89060DD488
:101850009FED341A18E00021C0E90011816080BDBD
:101860009FED2F1A10E09FED2D1A0DE05EF8381C49
:1018700049F20002C0F2D032C1F3C10122FA01F1F3
:1018800001EE101AB8EE411ADEF800109FED263A6C
:101890006FF35F2102EE101ADEF80010C1F346214B
:1018A000B8EE422A00EE032A00EE10CAB7EE003A64
:1018B000B8EE400A81EE000A32EE031A02EE101A68
:1018C000B8EE422A20EE010A32EE031A80EE011A27
:1018D000BCEEC11A80ED001ADEF80010C1F306411B
:1018E00001EE101AB8EE411A31EE031A80EE011A19
:1018F000BCEEC11A80ED011ADEF80010C1F30661DA
:1019000001EE101AB8EE411A31EE031A80EE010A08
:10191000BCEEC00A10EE101A816080BD0024744A2B
:1019200020BCBE4B0024744C0000003900000000B5
:1019300080B544F2404EC5F6020E5EF8183C5EF8E3
:10194000181CC1F3055C5EF8141CBCF1000FDEF836
:10195000042014D0C1F30021C2F3CC02514300EEA5
:10196000101A03F003010229B8EE400A0CD071B935
:101970005EF8401C89060DD49FED341A18E0002152
:10198000C0E90011816080BD9FED2F1A10E09FED2E
:101990002D1A0DE05EF8401C49F20002C0F2D03270
:1019A000C1F3C10122FA01F101EE101AB8EE411A99
:1019B000DEF800109FED263A6FF35F2102EE101A59
:1019C000DEF80010C1F34621B8EE422A00EE032AE9
:1019D00000EE10CAB7EE003AB8EE400A81EE000AF7
:1019E00032EE031A02EE101AB8EE422A20EE010A75
:1019F00032EE031A80EE011ABCEEC11A80ED001A15
:101A0000DEF80010C1F3064101EE101AB8EE411ADB
:101A100031EE031A80EE011ABCEEC11A80ED011AF4
:101A2000DEF80010C1F3066101EE101AB8EE411A9B
:101A300031EE031A80EE010ABCEEC00A10EE101A55
:101A4000816080BD0024744A20BCBE4B0024744CCD
:101A500000000039000000002DE9F04381B00028AB
:101A600000F0F48042F200080446C5F200288946DE
:101A7000D8F8000000F00F0088420ED2D8F800001D
:101A800020F00F0040EA0900C8F80000D8F8000074
:101A900000F00F00484540F0D980206844F2184714
:101AA0004107C5F602070AD521693A6802F07002BB
:101AB000914204D93A6822F070021143396001075B
:101AC0000AD561697A6802F07002914204D97A6895
:101AD00022F0700211437960C1060AD5A1697A68C3
:101AE00002F4E062914204D97A6822F4E062114380
:101AF000796081060AD5E169BA6802F07002914204
:101B000004D9BA6822F070021143B96081070AD57E
:101B1000E1683A6802F00F02914204D93A6822F073
:101B20000F0211433960C0077ED1206881070AD5B2
:101B3000E1683A6802F00F02914204D23A6822F05A
:101B40000F0211433960D8F8001001F00F01494528
:101B50000DD9D8F8001021F00F0141EA0901C8F8A9
:101B60000010D8F8001001F00F0149456ED141076F
:101B70000AD521693A6802F07002914204D23A68AB
:101B800022F070021143396001070AD561697A6851
:101B900002F07002914204D27A6822F0700211437E
:101BA0007960C1060AD5A1697A6802F4E0629142BF
:101BB00004D27A6822F4E0621143796080060AD583
:101BC000E069B96801F07001884204D2B96821F077
:101BD00070010843B86000F0BBF8396844F2CC7279
:101BE000C0F600023B68C1F3032103F00F03515C10
:101BF000D25C01F01F01C84002F01F0140F2080250
:101C000020FA01F1C2F20002116040F2040140F238
:101C10001002C2F20001C2F2000208601068FFF771
:101C200047F901B0BDE8F083386820F47061D4E969
:101C30000102012841EA020139600BD003282BD0B0
:101C400002282ED157F8181C890307D4012001B0AF
:101C5000BDE8F08357F8181CC905F7D557F8081CDC
:101C600021F00701084347F8080CFFF7D5F80646AE
:101C700041F2883557F8080C616800F03800B0EB85
:101C8000C10F3FF452AFFFF7C7F8801BA842F1D94C
:101C9000032001B0BDE8F08357F8181C8901D5D5A1
:101CA000DCE757F8181C4907D0D5D7E7000000003B
:101CB00080B500F04DF844F2184144F2CC73C5F6FB
:101CC0000201C0F600030A68096801F00F01C2F3BF
:101CD0000322595C9A5C02F01F0220FA02F201F022
:101CE0001F0040F2080122FA00F0C2F20001086071
:101CF00040F20401C2F200010A6080BD0000000051
:101D000080B5FFF7D5FF44F21C4144F2CC72C5F612
:101D10000201C0F600020968C1F30211515C01F032
:101D20001F01C84080BD000080B5FFF7C1FF44F22D
:101D30001C4144F2CC72C5F60201C0F600020968EB
:101D4000C1F30221515C01F01F01C84080BD0000B9
:101D500044F20041C5F602010869C0F3C20003283D
:101D60000FD002282AD070BB0868800649F2000014
:101D7000C0F2D03058BF70470968C1F3C101C840F4
:101D800070478A6A886AC0F3051CC86ABCF1000FF4
:101D90004B6B1DD0C3F3CC0300F00100584302F09D
:101DA0000302022A00EE100AB8EE400A12D0A2B9CD
:101DB0000868800614D49FED261A1EE047F64000FE
:101DC000C0F27D10704740F60010C0F23D00704731
:101DD000002070479FED1D1A0FE09FED1B1A0CE0CD
:101DE000086849F20002C0F2D032C0F3C10022FA02
:101DF00000F001EE100AB8EE411A086B9FED153A9B
:101E00006FF35F2002EE100A086BC0F34620B8EEB5
:101E1000422A013000EE032A00EE10CAB7EE003A63
:101E2000B8EE400A81EE000A32EE031A20EE010AF3
:101E300001EE100AB8EE411A80EE010ABCEEC00AAB
:101E400010EE100A704700BF0024744A20BCBE4B3D
:101E50000024744C000000392DE9F04381B000B338
:101E60008046007844F20049C007C5F6020900F038
:101E70008C80D9F8100000F03801D9F8280010291A
:101E800005D018290FD100F0030002280BD1D9F892
:101E90000000800375D5D8F80400002871D1012511
:101EA00060E0012520E2D8F80450B5F5A02F04DA4F
:101EB00095B1B5F5803F2CD030E01ED0B5F5A81F08
:101EC0002CD1D9F8000040F48020C9F80000D9F8DE
:101ED000000040F480101AE0D9F8000020F48030AF
:101EE000C9F80000D9F8000020F48010C9F80000FB
:101EF000D9F8000020F4802020E0D9F8000040F458
:101F00008020C9F80000D9F8000020F48010C9F83A
:101F10000000D9F8000040F480300FE0D9F800004C
:101F200020F48030C9F80000D9F8000020F48020A7
:101F3000C9F80000D9F8000020F48010C9F80000AA
:101F4000FEF76AFF002D054641F2883415D000BF28
:101F5000D9F80000800314D4FEF75EFF401BA042B6
:101F6000F6D903250020002800F0BE810DE000BF57
:101F7000FEF752FF401BA042F3D8D9F800008003BF
:101F8000F6D40120002800F0AF8198F80000800707
:101F90003DD5D9F8100010F03801D9F828001FD02D
:101FA000182908BF5FEA80701AD0D8F80C00D9F859
:101FB0000010002869D021F019010843C9F8000079
:101FC000FEF72AFF064600BFD9F80000400710D4EC
:101FD000FEF722FF801B0228F6D90325002413E018
:101FE000D9F80000400704D5D8F80C00002800F00C
:101FF0003981D9F80400D8F8101020F0FE400124EF
:1020000040EA0160C9F80400002C00F06D8198F8E6
:102010000000C0066BD5D9F8100000F03801D9F8DF
:102020002800082905D0182917D100F0030001283D
:1020300013D1D9F80000C00503D5D8F81C008028BA
:1020400050D1D9F80C00D8F8201020F07C50012491
:1020500040EA0160C9F80C0046E0D8F81C000028EE
:10206000D9F8000028D040F08000C9F80000FEF741
:10207000D3FE0646D9F80000C005E2D4FEF7CCFE38
:10208000801B0228F6D903252DE021F00100C9F8B4
:102090000000FEF7C1FE0646012700BFD9F8000088
:1020A00010F0040087EA9004AED0FEF7B5FE801B66
:1020B0000328F3D30325A7E720F08000C9F8000028
:1020C000FEF7AAFE06460127D9F8000010F480703A
:1020D00087EA102408D0FEF79FFE801B0328F3D365
:1020E000032501E001250024002C00F0FD8098F874
:1020F000000000071CD498F80000800631D498F83E
:102100000000400745D4D8F82440002C00F0EB80B4
:10211000D9F8100000F03800182840F08080012C19
:10212000D9F82810D9F8300040F0AE800125DBE066
:10213000D8F814000028D9F874003ED040F001000F
:10214000C9F87400FEF768FE054600BFD9F87400B0
:102150008007D0D4FEF760FE401B0228F6D9032585
:10216000C2E0D8F818000028D9F8000044D040F4A4
:102170008050C9F80000FEF74FFE0546D9F8000070
:102180008004BCD4FEF748FE401B0228F6D9032584
:10219000AAE0D9F8000440F48070C9F80004FEF702
:1021A0003BFE0546D9F80004C0051AD4FEF734FEFC
:1021B000401B6428F6D9032596E020F00100C9F8F9
:1021C0007400FEF729FE0646032500BFD9F8740007
:1021D00080077FF590AFFEF71FFE801B0228F5D920
:1021E00082E0D8F80850042D3FDC002D00F08080FC
:1021F000012D00F09A809DE020F48050C9F8000085
:10220000FEF70AFE06460325D9F8000080047FF594
:1022100076AFFEF701FE801B0228F5D964E0D9F8FD
:10222000000020F08070C9F80000FEF7F5FD022CD8
:1022300006464FF003050BD1D9F80000800140F1AC
:10224000AB80FEF7E9FD801B0228F5D94CE000BF0A
:10225000D9F80000800146D5FEF7DEFD801B02287C
:10226000F6D941E001250024CEE6052D51D0852D7B
:1022700060D1D9F8700040F00400C9F87000D9F8B6
:10228000700040F080004EE001F00302D8F82830E2
:102290009A4240F0FB80C1F30511D8F82C209142FE
:1022A00040F0F6800146D8F830206FF35F21013A04
:1022B000914240F0EF80C0F34622D8F83410013943
:1022C0008A4240F0E980C0F30642D8F8381001395C
:1022D0008A4240F0E380C0F30660D8F83C10013930
:1022E000884240F0DD800025284601B0BDE8F0833B
:1022F000D9F8700020F00100C9F87000D9F870001A
:1023000020F08000C9F87000D9F8700020F00400B7
:1023100020E0D9F8700040F00400C9F87000D9F846
:10232000700020F08000C9F87000D9F8700040F00B
:1023300001000FE0D9F8700020F00100C9F870002A
:10234000D9F8700020F00400C9F87000D9F87000C6
:1023500020F08000C9F87000FEF75EFD002D0646F3
:1023600041F288344FF0030511D000BFD9F8700056
:1023700080073FF5C8AEFEF74FFD801BA042F5D9A0
:10238000B2E700BFFEF748FD801BA042ACD8D9F8E9
:1023900070008007F6D4B6E608F12807D9F82800BF
:1023A00040F2F33188438ECF0843591E40EA0210B1
:1023B0004FF47E426FF35F21C9F8280002EB4720FB
:1023C0004FF4FE0280B2D8F83C300844D8F83810F8
:1023D00002EB01414FF0FE4201F4FE0102EB036209
:1023E000084402F0FE410844C9F83000D9F82C0036
:1023F0004FF6F87120F00100C9F82C00D9F834002C
:10240000D8F84820884340EAC200C9F83400D9F817
:102410002C00D8F8401020F00C000843C9F82C001C
:10242000D9F82C00D8F8441020F002000843C9F86D
:102430002C00D9F82C0040F48030C9F82C00D9F8D1
:102440002C0040F40030C9F82C00D9F82C0040F4DE
:102450008020C9F82C00D9F82C0040F00100C9F800
:102460002C00D9F8000040F08070C9F80000FEF799
:10247000D3FC04460325D9F8000080013FF533AFB3
:10248000FEF7CAFC001B0228F5D92DE701252BE732
:10249000012529E7012527E7012525E7012523E770
:1024A000012521E70000000080B501F029F880BD7A
:1024B00010B5A8B10446D0F8800020B90020E0672C
:1024C000204600F025F82420C4F880002068016828
:1024D00021F001010160204601F076F9012801D1C7
:1024E000012010BDA06A10B1204601F0C9F8206893
:1024F000416821F490414160816821F02A018160A6
:10250000016841F001010160204601F029F910BD88
:102510007047000000000000B0B541F20004C5F6AD
:10252000004425686FF31F35A5F21141722900F2AE
:102530007E8044F63F10C0F60000DFE811F0730023
:1025400078007D00780082007800870078008C0099
:1025500078007800780078007800780078009100A2
:102560007800DF0078007800780078007800780044
:10257000780078007800780078007800780096007D
:102580007800DF009B00A0007800780078007800D9
:10259000780078007800780078007800A500AA001C
:1025A000AF007800B400B9007800BE00C300C800D6
:1025B000780078007800780078007800CA00CC00B5
:1025C000CE007800780078007800780078007800F5
:1025D0007800780078007800780078007800D000E3
:1025E000D5007800780078007800780078007800CE
:1025F000780078007800780078007800DA007800B9
:10260000780078007800780078007800780078000A
:10261000780078007800780078007800DC00780096
:102620007800DE0044F6BD10C0F6000066E044F617
:102630005D10C0F6000061E044F6B310C0F6000083
:102640005CE044F68120C0F6000057E044F66B10D1
:10265000C0F6000052E044F6DF10C0F600004DE086
:1026600044F68710C0F6000048E044F64910C0F672
:10267000000043E044F6F110C0F600003EE044F6EE
:10268000B520C0F6000039E044F6C710C0F60000DF
:1026900034E044F65310C0F600002FE044F6182052
:1026A000C0F600002AE044F69110C0F6000025E0D4
:1026B00044F6A710C0F6000020E044F67910C0F6FA
:1026C00000001BE044F6D310C0F6000016E037A06F
:1026D00014E027A012E02FA010E028A00EE044F69E
:1026E0009F20C0F6000009E044F6CB20C0F60000B1
:1026F00004E034A002E019A000E013A002F034F8D6
:10270000B5F5906F18D1206841F20701B1EB104F79
:102710000FD0000C41F2010188420ED0B0F5805F6D
:1027200018BFB0BD44F61120C0F6000002F01CF83E
:10273000B0BD2AA002F018F8B0BD44F67220C0F671
:10274000000002F011F8B0BD53544D333248373217
:1027500078206F72204837337800000053544D338F
:102760003248374178206F722048374278000000A5
:1027700053544D33324837787800000053544D336A
:1027800032463732787878206F722046373378783F
:102790007800000053544D3332463736787878202D
:1027A0006F722046373778787800000053544D33E5
:1027B00032463734787878206F722046373578780B
:1027C0007800000053544D33324C345278787820DE
:1027D0006F72204C34537878780000002052657670
:1027E0002D5800000000000040F60061CEF200010C
:1027F000D1F88020D2071CBF09685FEAC17100D1FF
:1028000070474FF0604100BF0A680AB900BFFBE79C
:10281000087070470000000041F21C00C4F2010083
:102820000168090701D5082141600168490701D500
:102830000421416001688906FCD58068C0B27047F8
:1028400041F21C00C4F201000168090701D508210A
:1028500041600168490701D5042141600068C0F367
:102860004010704700000000FEE70000000000007C
:10287000704700000000000000F007004FF0FF3C30
:1028800080F00703042B28BF0423033838BF00203F
:102890000CFA03F399430CFA00F301FA00F022EA70
:1028A0000301084370470000002958D010B54BF2CF
:1028B000004C00240228C5F2002CC1E90044C1E903
:1028C00002440C6109D1DCF800004FF40074C00729
:1028D00004BF40F22224C0F20444002305E040F08B
:1028E000807008610133022B37D00CEB8300406805
:1028F000C20705D080EA0402920701D45A1C0A607C
:10290000C20605D580EA0402920601D45A1C4A6028
:10291000C20505D580EA0402920501D45A1C8A60DA
:10292000C2030DD580EA0402520309D4820303F1E5
:10293000010E02D44EF4803201E04EF08072CA6083
:10294000C201CFD580EA04025201CBD4800103F149
:102950000100C4D440F48030C3E7002010BD012042
:10296000704700000000000070B59AB006AC50211E
:102970002046FDF7FBFC40F2C8010026C2F2000130
:102980000520CDE90366CDE90166CDE9056608902D
:102990000868032100284FF04070079608BF012106
:1029A00008BF4FF08070099141F28832149040F2D4
:1029B0006800C2F2000021460B9601250D960F9685
:1029C000119616961595CDE917661996FEF708FD2E
:1029D000A0B9CDE90165102005904FF48000049066
:1029E00040F2680001A9C2F2000041F28832039669
:1029F000FEF79AFC0546002818BF012528461AB0A4
:102A000070BD000000000000F0B5036882681E6819
:102A1000002A26F040521A6005D11A684E6822F04A
:102A2000800232431A600A68032A0AD0022A11D1AE
:102A300003F5C07E03F5C47203F5C87C03F5D074BA
:102A400010E003F5A07E03F5A47203F5A87C03F55E
:102A5000B07407E003F5807E03F5847203F5887C8B
:102A600003F59074D1E912563543CEF80050CD6A83
:102A70006DB18D6A2560DEF80040CD6A24F47C14C7
:102A80004E6B2C430D6B34432C43CEF8004014683E
:102A90004D6C24F01F042C4314608A6B22B10C6827
:102AA00014B9CC6B013C1C64CD68CC69CDB1DEF8A7
:102AB000006054B3002A40D04CF2C0002A43CFF249
:102AC000FF004D69224330402A430C6910434A6A93
:102AD00020430C6A10430A6C20431043CEF80000D8
:102AE00047E0002C49D0002ADEF8000049D04CF223
:102AF000C0074E6ACFF2FF0722433F3732433840C8
:102B00000F6A024301F1400041E0002A48D04CF234
:102B1000C0004B69CFF2FF002A4300F57C501A43F6
:102B200030400B6910430A6C18431043CEF8000084
:102B30008868CCF800000020F0BD43F63F724F6972
:102B40002C4326EA02023C430D6922434C6A2A4385
:102B50000D6A22432A43CEF80020C06AB0F1805F9C
:102B600007D14869082804D1DEF8000040F0006071
:102B7000B4E78868CCF800000EE0082181650120E8
:102B8000F0BD4A6A20F47C57224301F120003A4309
:102B900000681043CEF80000886998640020F0BDFA
:102BA0004A6926F03F032A430C691A432243CEF8B0
:102BB0000020C06AB0F1805FBAD148690828B7D157
:102BC000DEF8000040F00060B0E700000000000008
:102BD00080B582B001A9012000F06AFA44F61E0017
:102BE0000199C0F6000001F06BFB0198810715D434
:102BF00040F00200019000F047FBFFF7B5FE10B176
:102C000007A001F0B1FD01A9012000F051FA44F63E
:102C10001E000199C0F6000001F052FB02B080BD19
:102C20004661696C205175616420456E61626C6516
:102C300000000000000000002DE9F0439FB00BAE43
:102C4000044650213046FDF791FB00209F21CDE93D
:102C50000B000D910125CDE90E5010904FF08071C1
:102C6000149041F28832169019912821CDE91A105A
:102C7000CDE91C001E9040F26800C2F2000031460F
:102C8000FEF7AEFB002840F0B38140F268000DF182
:102C90000409C2F2000041F288324946FEF7B0FC56
:102CA00008B10125A4E1D4A001F05EFD9DF8040067
:102CB000C8281FD19DF8050040281BD1D0A001F0E5
:102CC00053FD9DF8060018280FD0172807D01628A6
:102CD00010D1D3A001F048FD4FF480080AE0CEA047
:102CE00001F042FD4FF4000804E0C8A001F03CFDF3
:102CF0004FF080789DF80400EF2821D19DF8050061
:102D000040F0200060281BD1C7A001F02DFD9DF8E8
:102D10000600192809D018280DD0172810D1CAA0EC
:102D200001F022FD4FF400080AE0C1A001F01CFDF3
:102D30004FF0007804E0C1A001F016FD4FF080785C
:102D40009DF80400EF280CD19DF80500AA2808D1B1
:102D50009DF80600212804D1BDA001F005FD4FF02B
:102D600000689DF804001F280CD19DF8050032284A
:102D700008D19DF80600172804D1B8A001F0F4FC92
:102D80004FF400089DF804001F2818D19DF8050095
:102D90001F2814D19DF80600322810D19DF8070095
:102DA00032280CD19DF80800172808D19DF8090099
:102DB000172804D1ACA001F0D7FC4FF080789DF823
:102DC00004001F280CD19DF80500842808D19DF827
:102DD0000600012804D1AAA001F0C6FC4FF4002887
:102DE0009DF804001F2818D19DF805001F2814D154
:102DF0009DF80600842810D19DF8070084280CD186
:102E00009DF80800012808D19DF80900012804D187
:102E10009EA001F0A9FC4FF480189DF80400202822
:102E200040F081809DF8050020287CD19DF80600A7
:102E3000BA2878D19DF80700BA2874D199A001F07A
:102E400093FC9DF8080020280BD19DF8090020284C
:102E500007D144F64220C0F6000001F085FC4FF097
:102E600000689DF8080019280BD19DF80900192861
:102E700007D144F61110C0F6000001F075FC4FF0C8
:102E800080689DF8080018280BD19DF809001828C3
:102E900007D144F62810C0F6000001F065FC4FF0A1
:102EA000007844F6FB10C0F6000001F009FA9DF826
:102EB0000A0080B144F66C2609F108070025C0F627
:102EC000000617F81510304601F0FAF99DF80A00CF
:102ED00001358542F5D340F200010A20C2F200011B
:102EE00001F03FFC44F60320C0F6000001F0E8F9D1
:102EF0009DF80B0080B144F66C2609F10907002506
:102F0000C0F6000617F81510304601F0D9F99DF803
:102F10000B0001358542F5D340F200010A20C2F2D0
:102F2000000101F01EFC9DF80400202850D19DF8FE
:102F3000050000F0FE00BA284AD144F66520C0F62C
:102F4000000001F011FC9DF80600202807D144F68E
:102F5000C600C0F6000001F007FC4FF080689DF845
:102F60000600192807D144F6DF00C0F6000001F082
:102F7000FBFB4FF000789DF80600182807D144F6B7
:102F8000F800C0F6000001F0EFFB4FF0807844F647
:102F90000B20C0F6000001F093F99DF8070080B106
:102FA00044F66C2509F104060027C0F6000500BFB1
:102FB000F15D284601F084F99DF80700013787424A
:102FC000F6D340F200010A20C2F2000101F0C9FB71
:102FD00001A92820FDF770FC40F200010A20C2F28E
:102FE000000101F0BEFB0025002C18BFC4F80080D2
:102FF00028461FB0BDE8F0835245414420494400B3
:1030000047494741204445564943450047443235E6
:103010005131323800000000474432355136340017
:10302000474432355133320057494E424F4E4400E7
:103030005732355132353646560000005732355139
:1030400031323846560000005732355136340000D0
:103050005732354E3031475600000000415432356A
:103060005146363431000000415432355146363431
:103070003120284455414C2042414E4B290000004C
:10308000415432355346303431000000415432351A
:10309000534630343120284455414C2042414E4B58
:1030A000290000004D4943524F4E204455414C00E9
:1030B000B0B596B00C46054602A85021FDF756F96A
:1030C0000020072D0290039003D818A151F8251075
:1030D000049101210990CDE9051007904FF080720D
:1030E0000D901390CDE91021129002A9CDE91400A2
:1030F00040F2680041F28832C2F20000FEF770F937
:1031000008B116B0B0BD40F268000DF10701C2F27F
:10311000000041F28832FEF773FA002CF1D000284B
:1031200004BF9DF80700206016B0B0BD0500000088
:10313000350000001500000070000000B500000020
:1031400085000000650000009600000000000000FF
:103150002DE9F04381B004460068006A084018BFBA
:103160000120904203D1002001B0BDE8F083DDF8DA
:1031700020800D461646994608F1010707E000BF7A
:103180002068006A284018BF0120B042EBD0002F11
:10319000F6D0FDF741FEB8F1000F03D0A0EB090017
:1031A0004045EDD94FF400706065A06D40F001001E
:1031B000A065012001B0BDE8F08300000000000020
:1031C00070B59AB006AC50212046FDF7CFF840F21A
:1031D000C8060025C2F200060620CDE90355316875
:1031E00041F2883200294FF00301CDE90155CDE9C4
:1031F00005550795089040F2680008BF0121C2F20A
:103200000000CDE9091521460B950D9511951495F2
:10321000CDE917551995FEF7E3F84FF0010468BBA7
:103220000520089030684FF040710D9500280F95EB
:1032300014A808BF4FF0807141F2883232C040F2CA
:10324000680006A9C2F20000FEF7CAF8B0B9022071
:1032500001A9CDE9010000200390102005904FF452
:103260008000049040F2680041F28832C2F200000F
:10327000FEF75AF80446002818BF012420461AB069
:1032800070BD00000000000080B596B0159001A848
:103290005021FDF76BF831200390012004900021AC
:1032A0004FF08072CDE9051108910A910C911291AD
:1032B000CDE90F201191CDE91311FFF781FF08B17E
:1032C00016B080BD40F2680001A9C2F2000041F2D0
:1032D0008832FEF785F80028F2D140F2680015A97F
:1032E000C2F2000041F28832FEF7EAF916B080BD62
:1032F00041F21C01C4F201010A681206FCD5C86043
:10330000704700000000000010B50178002908BFD8
:1033100010BD441EC8B2FFF7EBFFA17801340029AD
:10332000F8D110BD00000000704700000000000050
:1033300010B5044640F2CC00C2F2000080222146C3
:10334000FDF7AEF938B144F2F4702146C0F6000042
:1033500000F0B6FF1FE012A0214600F0B1FF40F2DE
:10336000CC048020C2F200042146FDF7A5FA4FF0FC
:10337000FF3080212246FDF77FFA014644F68100A6
:10338000C0F6000000F09CFF40F200010A20C2F2EB
:10339000000101F0E6F94FF47A70FDF749FC10BD29
:1033A00052454144204455414C2020202530385876
:1033B0000A0000000000000010B5044640F24C1066
:1033C000C2F2000080222146FDF71AF920B115A0B3
:1033D000214600F075FF1FE018A0214600F070FFA5
:1033E00040F24C148020C2F200042146FDF764FA3A
:1033F0004FF0FF3080212246FDF73EFA014644F6A9
:103400008100C0F6000000F05BFF40F200010A20DE
:10341000C2F2000101F0A5F94FF47A70FDF708FC43
:1034200010BD00BF524541442053494E474C4520F2
:1034300025303858204641494C0A00005245414445
:103440002053494E474C4520253038580A0000008B
:1034500070B54EF614500021CEF2000043F6E07C29
:103460000167BFF34F8FC16EC1F3C903C1F34E3281
:1034700003F1010E9B0700BF0CEA42111C46754682
:1034800044EA0106013D04F14044C0F84C62F7D122
:10349000002AA2F10102EFD1BFF34F8F016841F47E
:1034A00080310160BFF34F8FBFF36F8F70BD00009D
:1034B0004EF614500021CEF20000BFF34F8FBFF341
:1034C0006F8FC0F83C12BFF34F8FBFF36F8F01684F
:1034D00041F400310160BFF34F8FBFF36F8F70472E
:1034E000704700000000000010B50446FFF77CF9AB
:1034F000E0B2FFF7FDFE204610BD00000000000016
:10350000B0B501380024B4EB106F01D00120B0BD7C
:103510004EF210050F21CEF2000568604FF0FF302B
:1035200000F0EAFCAC60072028602046B0BD000037
:1035300080B5FDF779FC80BDB0B59CB044F61804A9
:1035400001A84C2100251B95C5F60204CDE91955AB
:10355000CDE91755CDE915551495FCF707FF022065
:10356000FEF7FAF80095206840F44040206020689B
:1035700000F440400090009820688004FCD50120B1
:1035800001904FF4A0200290002504950895022098
:10359000CDE90A0005210C9170211395CDE90D109C
:1035A000109004200F90CDE9110501A8FEF754FCFE
:1035B00050BB3F20149003204FF48061CDE91505E6
:1035C00017954020CDE91800CDE91A1014A806215E
:1035D000FEF742FAC0B94FF6E830CFF6FF70215837
:1035E00041F0800121504FF63C50CFF6FF7021583A
:1035F00041F002012150205800F002000090009894
:10360000FDF72AFB1CB0B0BDFDF792FA00000000E8
:103610004EF6885C4EF67F50CEF2000CCEF6F620C9
:10362000DCF8001041F47001CCF8001044F20041C5
:10363000C5F602010A6842F001020A6000220A612E
:103640000B68184008608A61CA610A628A62CA62AD
:103650000A634A638A63CA630A644A64086820F496
:103660008020086044F200000A66C5F2002043F2A0
:10367000D20101604FF000604CF8800C70470000F0
:10368000816ACA070CD18A0715D44A071ED40A07D3
:1036900027D4CA0630D48A0639D44A0655D541E023
:1036A0000268D0F82CC0536823F4003343EA0C03BB
:1036B00053608A07E9D50268D0F830C0536823F414
:1036C000803343EA0C0353604A07E0D50268D0F820
:1036D00034C0536823F4802343EA0C0353600A0781
:1036E000D7D50268D0F838C0536823F4004343EAC2
:1036F0000C035360CA06CED50268D0F83CC093686C
:1037000023F4805343EA0C0393608A06C5D502680C
:10371000D0F840C0936823F4005343EA0C0393604D
:103720004A0612D50268D0F844C0BCF5801F536821
:1037300023F4801343EA0C03536006D1536823F447
:10374000C00C836C43EA0C035360090658BF7047F2
:103750000168C06C4A6822F4002210434860704738
:10376000B0B582B004460020C4F88800FDF754FBD1
:1037700021680546096809070AD54FF4001100229F
:103780006FF07E40009020462B4600F0FDFA70B9A5
:103790002068006840070DD54FF4800100226FF0CB
:1037A0007E40009020462B4600F0EEFA10B1032038
:1037B00002B0B0BD2020C4F88000C4F8840000200E
:1037C000E06702B0B0BD0000F0B583B00446036806
:1037D000806846F6F316D4E9031210436269104379
:1037E000E2691043626E1F68CCF6FF76104307EA69
:1037F00006021043186058684FF2FF4720F4405209
:1038000040F6004011435960C5F60000A1698342AB
:10381000C1F2FF171CBF226A11439A6847F6FF36B0
:103820003A40C4F2000611439960DA6A44F2544106
:1038300022F00F02676AC5F602013A43B342DA6228
:103840004FF0800229DD41F2FF77C4F20107BB424D
:103850004DDC47F60047C4F20007BB4200F07E8013
:1038600041F20007C4F20107BB4200F0838041F23D
:103870000047C4F20107BB4240F0CA800A68C2F3A5
:10388000C203052B00F2BB800122DFE813F0C10068
:10389000B600BA00BC00BE00C00044F6FF37C4F258
:1038A0000007BB4240DD44F60047C4F20007BB42BC
:1038B00000F06C8045F20007C4F20007BB4200F044
:1038C000708047F60007C4F20007BB4240F0A080BA
:1038D0000A6802F00703052B00F291800022DFE85E
:1038E00013F097008C00900092009400960041F62F
:1038F0000007C4F20107BB4200F05E8041F60047BA
:10390000C4F20107BB4200F06280834240F0808035
:103910004A6802F00703052B00F271800222DFE8FB
:1039200003F0776C7072747644F20047C4F20007BB
:10393000BB4200F0578044F60007C4F20007BB42C8
:1039400040F066800A6802F00703052B00F25780FA
:103950000022DFE803F05D5256585A5C0A6802F014
:103960000703052B00F24B800022DFE803F05146ED
:103970004A4C4E500A68C2F3C203052B00F23F8046
:103980000122DFE803F0453A3E4042440A6802F073
:103990000703052B33D80022DFE803F03A2F333535
:1039A00037390A6802F00703052B28D80022DFE820
:1039B00003F02F24282A2C2E0A68C2F3C203052BF9
:1039C0001DD80122DFE803F024191D1F21230A68F6
:1039D000C2F3C203052B12D80122DFE803F0190E4F
:1039E000121416180A6802F00703052B07D80022E4
:1039F000DFE803F00E0307090B0D042208E0802224
:103A000006E0082204E0102202E0202200E040222A
:103A10002368834240F60010C0F23D0000F053805E
:103A2000E369B3F5004F40F06C80402A00F2118149
:103A30000025DFE812F0410009010E010E0112011C
:103A40000E010E010E0116010E010E010E010E01F6
:103A50000E010E010E011D010E010E010E010E01DF
:103A60000E010E010E010E010E010E010E010E01DE
:103A70000E010E010E012B010E010E010E010E01B1
:103A80000E010E010E010E010E010E010E010E01BE
:103A90000E010E010E010E010E010E010E010E01AE
:103AA0000E010E010E010E010E010E010E010E019E
:103AB0000E010E010E0128010025FEF721F9002854
:103AC00040F0E68037E1931E1E2B00F2688000274D
:103AD000DFE803F0106C706C6C6C746C6C6C6C6C6C
:103AE0006C6C7C6C6C6C6C6C6C6C6C6C6C6C6C6C06
:103AF0006C6C86000027FDF773FE002840F0728092
:103B000062E0402A00F2E4800025DFE812F0410084
:103B1000DC00E100E100E500E100E100E100E90096
:103B2000E100E100E100E100E100E100E100F0007E
:103B3000E100E100E100E100E100E100E100E1007D
:103B4000E100E100E100E100E100E100E100FE0050
:103B5000E100E100E100E100E100E100E100E1005D
:103B6000E100E100E100E100E100E100E100E1004D
:103B7000E100E100E100E100E100E100E100E1003D
:103B8000E100E100E100E100E100E100E100FB0013
:103B90000025FEF7B5F8002840F0B880CBE0402AB9
:103BA00004D14FF400400027E0B90DE000200127C8
:103BB000C0B909E06846FDF727FE02E06846FDF758
:103BC000B7FE0027019868B93D46B4E051F8540C9F
:103BD000800649F20000C0F2D03000F1B580002725
:103BE0000028F1D0616A44F2DC72C0F60002666817
:103BF000012532F8112006EB4603B0FBF2F19942A1
:103C0000C0F099803303994200F29580002100238F
:103C1000FCF774FB0902002341EA106132460002FE
:103C200010EB560041F10001FCF768FB4FF6FF4234
:103C3000A0F54071C0F20F02914203D821683D46C1
:103C4000C86078E0012576E00025FEF76DF8F8B948
:103C500071E000200125D8B96DE06846FDF7D4FD7C
:103C600002E06846FDF764FE0025019880B962E035
:103C700051F8540C800649F20000C0F2D0306DD4E7
:103C8000002528B957E04FF400400025002852D005
:103C9000616A44F2DC72C0F6000232F81110626808
:103CA000B0FBF1F0510801EB40004FF6F071B0FBB2
:103CB000F2F0014005D0C0F3420022680843D06012
:103CC00039E0012537E00025FEF72EF8F0B932E0A3
:103CD00000200125D0B92EE06846FDF795FD02E0F1
:103CE0006846FDF725FE0025019878B923E051F8D4
:103CF000540C800649F20000C0F2D03038D40025C0
:103D000020B918E04FF400400025A0B1616A44F2E8
:103D1000DC72C0F6000232F811106268B0FBF1F0FC
:103D200000EB5200B0FBF2F080B2102802D3216801
:103D3000C86000E001254FF00110A0660020C4E932
:103D40001B00284603B0F0BD51F8541C0027C1F3F6
:103D5000C101C84000287FF445AF35E751F8541C35
:103D60000025C1F3C101C84000287FF491AFE2E70C
:103D700051F8541C0025C1F3C101C8400028C5D129
:103D8000D9E70000000000002DE9F04381B00446AF
:103D90000068C0690840401AB0FA80F040099042BB
:103DA00037D1DDF820800D461646994608F1010707
:103DB00009E000BF2068C0692840401BB0FA80F0CD
:103DC0004009B04225D1002FF4D0FDF725F8216835
:103DD000B8F1000F0A6820D0A0EB090040451CD8BC
:103DE000500744BFC8695FEA0050E3D54FF4006054
:103DF0000862086820F4D0700860886820F001002C
:103E000088602020C4F88000C4F88400C4F88800CA
:103E10000FE0002001B0BDE8F08322F4D07008600C
:103E2000886820F0010088602020C4F88000C4F871
:103E300084000020E067032001B0BDE8F0830000AB
:103E4000B0B5AAB002AC8C21204600252995CDE959
:103E50002755CDE92555FCF789FA44F24050C5F6BF
:103E60000200016941F010010161016901F01001D6
:103E700001910199016841F001010160006825A9E3
:103E800000F00100019001984FF40070259002208D
:103E900026900120279003202890072029900020B9
:103EA000C5F60200FCF7E4FE41F20000C4F2010096
:103EB00002904FF4E130CDE90305CDE90555082026
:103EC000079020460895CDE90955FEF7F1FA00283C
:103ED00004BF2AB0B0BDFCF72BFE000000000000BC
:103EE000FEE70000000000004EF60C50CEF200008D
:103EF0000068C0F3022070474EF6145300F00F0222
:103F0000CEF20003B0F1FF3F1A4400F16043C8BF96
:103F100003F56442080110707047000000000000C3
:103F20004EF60C514FF6FF03CEF200010A681A401C
:103F300060F30A2242F0806040F0FD700860704734
:103F400080B5FFF7D1FA80BD82B0814640A0984687
:103F500016460D4600F008FC44F6290099E88E004C
:103F6000C0F60000009700F0ABF944F65500294672
:103F7000C0F600003246434609F12007009700F0E2
:103F80009FF909F1100636A04ECE009600F098F980
:103F90004EF62850CEF20000016902684368866838
:103FA00045693AA00096019500F08AF941F2D815CA
:103FB000C2F20005AF4216D240F200080024C2F25D
:103FC000000840A6600703D10A20414600F0C9FB63
:103FD00057F8041B304600F073F9AF4203D22F2C80
:103FE00004F10104EED340F200050A20C2F20005FC
:103FF000294600F0B6FBD9F818002946A0F11006B2
:104000000A2000F0AEFB002530A400BF715B204603
:1040100000F056F90235102DF8D1715B2DA0354412
:1040200000F04EF96FF001062CA400BFA81981889A
:10403000204600F045F90236082EF7D140F2000183
:104040000A20C2F2000100F08CFB00BFFEE700BFB7
:104050000A5B48617264204661756C745D00000003
:104060007231323D20253038582C206C72203D2092
:10407000253038582C207063203D20253038582CAE
:10408000207073723D20253038580A0062666172D4
:104090003D253038582C20636673723D25303858E2
:1040A0002C20686673723D253038582C2064667366
:1040B000723D253038582C20616673723D253038AA
:1040C000580A0000202530385800000020253034E0
:1040D0005800000028253034582900002530345875
:1040E0002000000000000000C2B0FCF7BDFBFCF7A0
:1040F000ABFEFFF721FAFFF7A3FE4BA000F034FB65
:1041000040F20400C2F2000001684DF68360C4F280
:104110001B30A1FB000249A0920C00F0D1F8FCF783
:1041200007FBFEF7F9F9FCF713FDFDF7C1FD0146AA
:1041300047A000F0C5F8FDF7E3FD014647A000F0F9
:10414000BFF8FDF7F1FD014647A000F0B9F844F2D1
:104150004C40C5F60200006800F0300145A000F0B8
:10416000AFF8FCF741F9012803D148A000F0FCFAB0
:1041700018E044F67924C0F60004204600F0F4FA72
:1041800041A8FEF759FD3EA1002808BF2146084678
:1041900000F0EAFA0020FFF70FF90020FFF7C8F857
:1041A000FCF732FC3CA000F0DFFA40F2CC1640F203
:1041B000000844F6B207C2F200063CA401ADC2F208
:1041C0000008C0F600070DE03168204600F078F8DE
:1041D00031684FF480722846FCF712FA90B13846E5
:1041E00000F0C2FAFEF72CFB0028FBD0FEF714FB10
:1041F000A0F16101C9B21A2938BF2038C0B24C28D9
:10420000F0D1E1E74FF480702946FCF755FB0A2016
:10421000414600F0A6FA3068419900F58070884266
:1042200028BF00203060DDE70A4D415243454C4F26
:104230002D483742302044656D6F00000A0A436FF5
:1042400072653D25642C202564204D487A0A0000C3
:1042500048434C4B3D2539640A000000415042312F
:104260003D2539640A000000415042323D25396441
:104270000A0000004F5350495352433D25640A0041
:1042800051535049204661696C0000005153504918
:10429000204572726F720000496E66696E697465BE
:1042A000204C6F6F702E2E2E0000000052454144AE
:1042B00020424C4F434B20253038580A0000000064
:1042C0000FB4054B10B503A9044A029800F018F882
:1042D00010BC5DF814FB0000413F00080000002006
:1042E00002E008C8121F08C1002AFAD170477047BF
:1042F000002001E001C1121F002AFBD1704700001D
:104300002DE9FF4F8DB00F460546002606E0252813
:104310000BD0DDE90F1290476D1C761C2878002821
:10432000F5D111B03046BDE8F08F0024A246A14679
:104330000122EC4900E0044315F8013F203B02FA5A
:1043400003F00842F7D128782A2810D06FF02F0206
:104350002878A0F13001092914D80AEB8A0102EB70
:10436000410144F0020400EB010A6D1CF0E701CFAB
:104370005FEA000A03D544F40054CAF1000A44F08D
:1043800002046D1C28782E2817D115F8010F44F06F
:1043900004042A280ED06FF02F022878A0F13001F3
:1043A00009290AD809EB890102EB410100EB010957
:1043B0006D1CF2E757F8049B6D1C28786C280FD011
:1043C00006DC4C2817D068280DD06A2814D104E0E8
:1043D000742810D07A280FD10DE044F400140AE0BC
:1043E00044F4801401E044F440146978814202D11D
:1043F00004F580146D1C6D1C2A786E2A1FD00CDC0D
:10440000632A31D004DC002A8BD0582A11D1A3E0D2
:10441000642A68D0692A0CD165E0732A2ED004DCA6
:104420006F2A73D0702A04D19BE0752A6FD0782A46
:104430006ED01046DDE90F129047761C50E1C4F3B0
:104440000250022806D0032809D0042801CF09D041
:10445000066045E101CFF117C0E9006140E101CFFD
:1044600006803DE106703BE117F8040B8DF8000073
:1044700000208DF80100EB46012003E057F804BB53
:104480004FF0FF3061074FF0000102D40DE008F15A
:104490000101884649450FDA8045F8DB1BF8081012
:1044A0000029F4D108E008F1010188468142FADBD5
:1044B0001BF808100029F6D1DDE90F23AAEB08004C
:1044C0008146214600F036F9304400EB080604E04E
:1044D000DDE90F121BF8010B9047B8F10108F7D284
:1044E00021464846F7E00A21C4F302534FF0000B7F
:1044F0000891022B04D001CFC117032B09D00AE089
:10450000FF1D27F00707F7E8020108E032E01FE08F
:1045100020E000B2C117042B01D140B2C117031E25
:1045200071F1000307DA4FF0000CD0EB0C006CEBDC
:1045300001012D2302E0230504D52B238DF824301F
:10454000012303E0E30701D02023F7E7984658E072
:104550000A2110E010210EE010204FF0000B08900F
:104560000CE010214FF0000B44F004044FF0080958
:10457000089103E008214FF0000B0891C4F30253A7
:10458000022B04D001CF0021032B06D006E0FF1D33
:1045900027F00707F7E8020103E080B2042B00D1FF
:1045A000C0B24FF0000823072BD5702A07D0DDF8E2
:1045B00020C08CF0100C5CEA0B0C05D00EE0402300
:1045C0008DF82430012308E050EA010306D030239F
:1045D0008DF824308DF8252002239846DDF820C080
:1045E0008CF0080C5CEA0B0C0BD150EA010301D1F2
:1045F000630706D530238DF824304FF00108A9F168
:104600000109582A04D038A20B9208AA0A920BE09A
:104610003AA2F9E75B46089AFBF770FE0B9B9B5C9E
:104620000A9A521E0A92137050EA0102F2D10A98B5
:10463000ADEB000000F1200B600702D524F48034BC
:1046400001E04FF00109D94502DDA9EB0B0000E0C4
:10465000002000EB0B0141440890AAEB010AE003A3
:1046600006D4DDE90F232146504600F063F80644E6
:104670004FF0000908E009A911F80900DDE90F125F
:10468000904709F10109761CC145F4DBE0030CD524
:10469000DDE90F232146504600F04CF8064404E0C3
:1046A000DDE90F1230209047761C0899481E0890CB
:1046B0000029F5DC08E00A980A990078491C0A915B
:1046C000DDE90F129047761CBBF10001ABF1010B45
:1046D000F1DC21465046DDE90F2300F019F80644CD
:1046E0006D1C1BE609280100303132333435363772
:1046F000383961626364656600000000303132332E
:1047000034353637383941424344454600000000CD
:104710002DE9F041044600251E461746880404D4BE
:1047200005E039462020B0476D1C641EF9D52846A7
:10473000BDE8F0812DE9F041044600251E46904673
:10474000C80301D5302700E02027880404D505E000
:1047500041463846B0476D1C641EF9D52846BDE871
:10476000F081FFF7EDBB000010B5044601E0FFF754
:10477000E7FB14F8010B04490028F8D1BDE810400C
:104780000A20FFF7DDBB0000000000200000000051
:104790006410B71DC8206E3BAC30D9269041DC7642
:1047A000F4516B6B5861B24D3C7105502083B8EDEC
:1047B00044930FF0E8A3D6D68CB361CBB0C2649B10
:1047C000D4D2D38678E20AA01CF2BDBD000000005E
:1047D00001020304010203040607080901000200A4
:1047E0000400060008000A000C0010002000400031
:1047F0008000000152454144205155414420202071
:1048000025303858204641494C0A00572052454728
:104810002025303258205354415455530A005245F4
:10482000473220253034580A007230203D20253090
:1048300038582C207231203D20253038582C2072D9
:1048400032203D20253038582C207233203D202541
:104850003038580A007234203D20253038582C203A
:104860007235203D20253038582C207236203D20CE
:10487000253038582C207370203D20253038580AB8
:104880000043524333323A253038580A00436F729E
:10489000746578204D302B207225647025640A00E1
:1048A000436F72746578204D3020722564702564E2
:1048B0000A005245414420424C4F434B202121469F
:1048C00041494C2121004D543235514C2035313273
:1048D000202853494E474C452042414E4B29004D1C
:1048E000543235514C20323536202853494E474CEE
:1048F000452042414E4B29004D543235514C203118
:104900003238202853494E474C452042414E4B29CE
:10491000004D543235514C20323536202844554113
:104920004C2042414E4B29004D543235514C2031E0
:10493000323820284455414C2042414E4B290053E7
:10494000544D3332463430310053544D33324634B3
:1049500031310053544D33324634313200556E6B91
:104960006E6F776E2053544D33320053544D3332B3
:104970004C302043617420330053544D33324C305B
:104980002043617420350053544D3332463434365D
:104990000053544D3332463033307834206F722018
:1049A0004630333078360053544D3332463037304A
:1049B00078360053544D3332463430370053544D1B
:1049C0003332463435370053544D3332463033306A
:1049D00078380053544D33324630373078380053EE
:1049E000544D333246343239206F722046343339D5
:1049F0000053544D333246343639005549442D3036
:104A0000203A005549442D31203A00554944203A76
:104A100000205265762D410053544D3332463033D9
:104A200030784300556E6B6E6F776E20434F524562
:104A3000003031323334353637383941424344451A
:104A400046004D543235514C2035313220284455E2
:104A5000414C2042414E4B29202F204D5432355499
:104A60004C303147004D4943524F4E0020253032E3
:104A70005800205265762D5A0051535049204F6BF3
:104A80000053544D33324C34373578782C204C3425
:104A900037367878206F72204C3438367878005367
:104AA000544D33324C3439367878206F72204C3480
:104AB000413678780053544D33324C34337878781B
:104AC000206F72204C34347878780053544D333250
:104AD0004C3435787878206F72204C34367878787A
:104AE00000000000084B0008000000201800000033
:104AF000E0420008204B000818000020C011000010
:104B0000F042000800000000000000000090D00308
:104B10000090D00301000000100000000000000021
:04000005080002AD40
:00000001FF
