:020000040800F2
:10000000F8990020DD01000871210008E5010008D1
:1000100069210008C9090008193C00080000000017
:10002000000000000000000000000000713800081F
:10003000190B000800000000792100087938000839
:100040000D0200080D0200080D0200080D02000854
:100050000D0200080D0200080D0200080D02000844
:100060000D0200080D0200080D0200080D02000834
:100070000D0200080D0200080D0200080D02000824
:100080000D0200080D0200080D0200080D02000814
:100090000D0200080D0200080D0200080D02000804
:1000A0000D0200080D0200080D0200080D020008F4
:1000B0000D0200080D0200080D0200080D020008E4
:1000C0000D0200080D0200080D0200080D020008D4
:1000D0000D0200080D0200080D0200080D020008C4
:1000E0000D0200080D0200080D0200080D020008B4
:1000F0000D0200080D0200080D0200080D020008A4
:100100000D0200080D0200080D0200080D02000893
:100110000D0200080D0200080D0200080D02000883
:100120000D0200080D0200080D0200080D02000873
:100130000D0200080D0200080D0200080D02000863
:100140000D0200080D0200080D0200080D02000853
:100150000D0200080D0200080D0200080D02000843
:100160000D0200080D0200080D0200080D02000833
:100170000D0200080D0200080D020008000000003A
:100180000D0200080D0200080D0200080D02000813
:100190000D0200080D0200080D0200080D02000803
:1001A0000D0200080D0200080D0200080D020008F3
:1001B0000D0200080D0200080D0200080D020008E3
:1001C0000D0200080D020008DFF80CD000F0BAFAAA
:1001D0000048004709440008F89900200C4880476F
:1001E0000C4800471EF0040F0CBFEFF30880EFF33C
:1001F000098021462A46334603F002BFFEE7FEE7A8
:10020000FEE7FEE7FEE7FEE7FEE7FEE7FEE70000AB
:10021000C1380008C90100082DE9F05F054600203B
:1002200092469B4688460646814640241BE0284667
:1002300041464746224600F041F953465A46C01A05
:10024000914110D311461846224600F028F92D1A84
:1002500067EB01084F4622460120002100F01FF9FC
:1002600017EB00094E41201EA4F10104DFDC4846D3
:1002700031462A464346BDE8F09FD2B201E000F87D
:10028000012B491EFBD270470022F6E710B513463A
:100290000A4604461946FFF7F0FF204610BD034604
:1002A00011F8012B00F8012B002AF9D118467047EC
:1002B0002DE9FE4F81EA030404F0004421F00041DF
:1002C00000944FF0000B23F0004350EA01045ED08D
:1002D00052EA03045BD0C3F30A54C1F30A552C4419
:1002E000A4F2F3340194A0FB0254C1F3130141F4CE
:1002F0008011C3F3130343F4801301FB024400FB9A
:10030000034E840A970A44EA815447EA8357A4FBC0
:10031000076802958D0A05FB07854FEA932C04FBBD
:100320000C542705029D4FEA065847EA1637B5EBED
:1003300008056EEB070C870E920E47EA811742EA1A
:100340008312A7FB0201B6EB0B0164EB00042B0D3B
:1003500043EA0C335E1844EB1C50DA465146E7FB87
:100360000201C5F313044FEA0B3343EA14534FEA77
:100370000432019C43EA0603A4F10C040294009C9D
:10038000CDE900B400F0B9F803B0BDE8F08F00206B
:100390000146F9E72DE9F04D81EA030404F0004B32
:1003A00021F0004514464FF0000A23F0004150EAC6
:1003B000050220D054EA01021DD0C5F30A570246B7
:1003C000C5F31303C1F31300C1F30A5640F48015BB
:1003D00043F48013A7EB0608101BD64608F2FD383D
:1003E00073EB050002D308F1010801E092185B41AC
:1003F000B8F1000F03DA00200146BDE8F08D0020BF
:100400004FF48011064684460EE0171B73EB050778
:1004100005D3121B63EB050306434CEA010C4908A4
:100420004FEA300092185B4150EA0107EDD152EAE1
:10043000030012D082EA040083EA0501084305D0D4
:10044000101BAB4106D20122002306E000224FF030
:10045000004302E06FF0010253101AEB06004CEB70
:10046000085110EB0A0041EB0B01BDE8F04D00F024
:1004700035B830B50B46014600202022012409E0A2
:1004800021FA02F59D4205D303FA02F5491B04FA4D
:1004900002F52844151EA2F10102F1DC30BD202A2C
:1004A00004DB203A00FA02F1002070479140C2F1CB
:1004B000200320FA03F3194390407047202A04DBFD
:1004C000203A21FA02F00021704721FA02F3D040CD
:1004D000C2F12002914008431946704710B5141E1E
:1004E00073F1000408DA401C41F1000192185B41ED
:1004F0001A4301D120F0010010BD2DE9F04D9246C4
:100500009B4611B1B1FA81F202E0B0FA80F22032DA
:100510009046FFF7C4FF04460F4640EA0A0041EA4E
:100520000B0153465A46084313D0114653EA0100C3
:1005300019D0C8F140025046FFF7C0FF05460E46ED
:10054000504659464246FFF7AAFF084305D001200E
:1005500004E020463946BDE8F08D0020054346EA18
:10056000E0762C4337430A986305E40AA0EB0800C1
:100570000022FD0A44EA47540A3002D50020014611
:10058000E9E7010510196941DDE9084500196941EC
:10059000BDE8F04DA2E72DE9FE4F804681EA030059
:1005A000C00F0C46009021F0004123F00045B8EB4D
:1005B0000200A94105D24046214690461C460B4602
:1005C000024623F00040104347D0270DC7F30A002E
:1005D000C3F30A510290401A019040286BDAC3F32A
:1005E000130040F4801B0098924620B10023D2EB08
:1005F000030A63EB0B0B01985946C0F140025046C9
:10060000FFF74DFF06460D4650465946019A00F049
:10061000ABF810EB08006141002487EA115284EA2C
:10062000E7731A4340D0009A62B3019A012A4FEA55
:10063000075215DC001B61EB02014FF0004202EA99
:100640000752CDE90042001C41F5801132462B468D
:10065000FFF753FF03B0BDE8F08F40462146F9E7AE
:10066000001B61EB0201001C41F5801300185B4187
:100670002018A2F5001747EB030140EAD570B61920
:100680006D4111E06D084FEA360645EAC0754FEA44
:100690000752001B61EB0201001C41F58011490863
:1006A0004FEA30000019514132462B4603B0BDE8F5
:1006B000F04FFFF713BF0098012240000023D0EB5A
:1006C000020263EBE073009821464FEAE074B8EB56
:1006D000000061EB0401E9E783F000435BE781F090
:1006E000004158E7C1F30A52C1F3130140F2FF334E
:1006F00041F480119A4202DA00200146704740F22C
:1007000033439A42A2F2334202DC5242FFF7D6BE92
:10071000FFF7C5BE30B5041E71F1000404DB4FF0D5
:100720000044404264EB0101141E73F1000405DB38
:100730001C464FF00043524263EB0403994208BF4A
:10074000904230BD064C074D06E0E06840F00103E2
:1007500094E8070098471034AC42F6D3FFF738FD11
:10076000405E0008605E0008202A06DBCB17203AB6
:1007700041FA02F043EAE07306E041FA02F3D040A6
:10078000C2F1200291400843194670470000000062
:100790002DE9F04186B039A005F0C6F843F63000E7
:1007A00041F20004C4F20200C4F2020401AD4FF0B1
:1007B000010881684FF4006741F00201816081689F
:1007C000092601F002010191019950F8181C41F02D
:1007D000020140F8181C50F8181C21F0020140F8E2
:1007E000181C016841F004010160016801F0040176
:1007F00001910199016841F002010160016801F075
:10080000020101910199016841F010010160016844
:1008100001F0100101910199016841F0100101609E
:100820000068294600F01000019001980220029013
:10083000CDE90380A4F500600197059600F008FB60
:100840000020039004200190A4F5406029460596FD
:1008500000F0FEFA20462946CDF80C800A260197C2
:10086000059600F0F5FA4FF4805001902046294695
:10087000059600F0EDFA06B0BDE8F0814253505FF6
:10088000515350495F4D7370496E69740000000008
:100890002DE9F043A3B015AE002505954FF4807403
:1008A00003954FF480630794022708934FF4005395
:1008B00004938046CDE90171301D282109954FF040
:1008C00080790695CDE90A92CDE90C550E95FFF792
:1008D000DBFC0620159040F218001B94C2F20000C9
:1008E00041F2883200F1300431462046CDE91355FB
:1008F000CDE91155CDE90F55CDE91C551E951A9539
:10090000CDE92055229500F0D7FC20B101273846CB
:1009100023B0BDE8F08315AE1020CDE90F77012795
:100920000FAACDE9127511904FF4800014900520A4
:10093000159041F2883320463146CDF8789000F08A
:100940002BFC0028E3D101A941F28832204600F0B7
:10095000B3FC20B10127384623B0BDE8F08341F253
:1009600088322046414600F09FFE00284FF00107E4
:10097000CDD1301D2821FFF787FC4FF480701B90EC
:100980000520159000204FF08071CDE91C001E91CC
:100990000FAA1A9041F28833CDE920002290314607
:1009A000CDE90F07CDE91270102011904FF48000AF
:1009B0001490204600F0F0FB0746002818BF0127DE
:1009C000384623B0BDE8F083FEE7000000000000D9
:1009D00010B54EF6005042F20001CEF20000CEF209
:1009E000040104680A686FF31F320868030C26A02C
:1009F000214604F0A7FA04F07F40B0F1824F17D1EE
:100A0000C4F30B1304F00F02C4F30351A3F54260C7
:100A1000072812D8DFE800F004241C292E1C1C3300
:100A200045F69420C0F60000BDE8104004F08ABAF4
:100A30001EA0BDE8104004F077BFB3F5466F07D1A4
:100A400045F68120C0F60000BDE8104004F07ABAF7
:100A500045F6D240C0F60000BDE8104004F064BF87
:100A600028A0BDE8104004F06DBA21A0BDE81040F8
:100A700004F068BA19A0BDE8104004F063BA12A0EF
:100A8000BDE8104004F05EBA43505549442025307B
:100A90003858204445564944202530335820524583
:100AA00056494420253034580A000000556E6B6EBC
:100AB0006F776E20434F524520494D504C454D4570
:100AC0004E54455200000000436F72746578204D0B
:100AD00037207225647025640A000000436F727429
:100AE0006578204D34207225647025640A0000006A
:100AF000436F72746578204D3320722564702564CD
:100B00000A000000436F72746578204D3120722511
:100B1000647025640A0000007047000000000000B7
:100B20002DE9F04381B045F60053070FC0F60003EE
:100B300040F29404C0F30366C2F20004C0F303550C
:100B4000DF5D04F80B7B9F5DC0F303468946C0F36D
:100B5000032104F80A7C5F5D9046C0F3033504F876
:100B6000097CC0F3031200F00F009F5D595C04F88C
:100B7000087C5F5D04F8061C995C185CB9F1000FF5
:100B800004F8077C04F8051C04F8040C43F6202044
:100B900024F8030C4FF0200004F8010C00F08B80C7
:100BA000A9F1010009F0030C032804D20021BCF1D3
:100BB000000F51D17CE029F0030008F10105424209
:100BC0006FF00301202700BF6818002901F104011C
:100BD000C6784FEA16169E5D04F80C6BC67804F8CA
:100BE0000A7C06F00F069E5D04F80B6C06794FEA4E
:100BF00016169E5D04F8096C067904F8077C06F069
:100C00000F069E5D04F8086C46794FEA16169E5D45
:100C100004F8066C467904F8047C06F00F069E5D25
:100C200004F8056C86794FEA16169E5D04F8036C8D
:100C300002EB0106807900F00F00185C04F8020C4A
:100C40004FF0200008BF2D20043604F8010CBBD162
:100C50000431BCF1000F2BD018F80100BCF1010FDA
:100C60004FEA1010185C207018F8010000F00F0017
:100C7000185C60704FF02000A07004D10334B9F10B
:100C80000F0F18D960E04A1C072A18F802704FEAC3
:100C90001717DF5DE77018F8027007F00F07DF5DC8
:100CA000277108BF2D20BCF1020F607126D10634D8
:100CB000B9F10F0F48D8A9EB8900202200F13001CB
:100CC0002046FFF7DAFAC9F1000010F00301C9F17C
:100CD0000F0007D0012909D1033409F101010328CC
:100CE0002BD231E04946032827D22DE002291FD11B
:100CF000063409F1020103281FD225E0881C0728C9
:100D000018F800104FEA1111595CA17118F8001081
:100D100004F1090001F00F01595CE1714FF020016D
:100D200008BF2D2121720446B9F10F0FC3D90BE082
:100D3000093409F10301032806D3A1F1100000BF13
:100D4000043004F10C04FBD1B9F1000F5DD0A9F11E
:100D5000010009F0030C032804D20021BCF1000FAC
:100D60002CD152E029F0030E08F1010300212E27B7
:100D70005E18621816F8015CA5F120005F2828BFF4
:100D80003D466554585C0431A0F120055F2D28BF15
:100D9000384650707078A0F120055F2D28BF384686
:100DA0009070B078A0F120055F2D28BF38468E45A1
:100DB000D070DDD10C44BCF1000F26D018F8010032
:100DC0002E22A0F120035F2B234628BF1046BCF142
:100DD000010F03F8010B01D11C4616E0414448788D
:100DE000A0F120035F2B38BF0246BCF1020F6270F6
:100DF00001D1023409E08878A0F120015F2904F1D3
:100E0000030128BF2E20A0700C4640F60D20208044
:100E100040F294000021C2F20000A17001B0BDE8D0
:100E2000F083000000000000B0B5044600F0E0F8D8
:100E300040F20C010546C2F20001621C097818BF9D
:100E40000C4400BF00F0D4F8401BA042FAD3B0BD60
:100E50002DE9F04F81B000F13E424FF0080A02F157
:100E6000FF7741F60042C4F2020243F6004E904280
:100E70004FEAB72208BF4FF0070A072AC4F2010E53
:100E800038BF4FEAB72A00244FF0010B0026002795
:100E900007E000BF01370436102F04F1020400F010
:100EA000A2800BFA07F80B6813EA080FF2D0D1F80A
:100EB00004C04CF01003122B15D16FF003020F2564
:100EC00002EA570306F01C02034405FA02F9D3F8BC
:100ED00020C00D692CEA090C05FA02F242EA0C0264
:100EE0001A62D1F804C003220368A240BCF1120FB9
:100EF0006FEA020923EA02020CF0030303FA04F387
:100F000042EA0302026013D80BFA0CF212F0061F39
:100F10000ED08268CB6802EA0902A3401A438260BD
:100F200042684FEA1C1322EA0802BB401A4342609F
:100F3000C2688B68A34002EA09025FEACC0542EA74
:100F40000302C260A6D543F644034FF60849C4F233
:100F50000203CFF6FF790F251A6842F480421A6027
:100F60001A6827F0030302F4804200920EEB03029A
:100F7000009B06F00C0352F809C09D402CEA0505C1
:100F80000AFA03F32B4342F80930DEF800C04B683D
:100F90004CEA0805DA0358BF2CEA08059A03CEF894
:100FA0000050DEF804C04CEA080558BF2CEA0805DA
:100FB000DA02CEF80450DEF808C04CEA080558BF43
:100FC0002CEA080543F60C4C9B02C4F2010CCEF847
:100FD0000850DCF8002042EA080558BF22EA08055C
:100FE000CCF8005056E701B0BDE8F08F00000000DB
:100FF00040F2F010C2F200000068704700000000EC
:1010000040F20C0040F2F011C2F20000C2F2000106
:1010100000780A6810440860704700000000000073
:1010200080B543F60040C4F20200016841F400714B
:101030000160016841F480710160032000F060F8F4
:101040000F2000F005F800F027F8002080BD000018
:1010500070B540F20C0640F21401C2F20006C2F272
:1010600000014FF47A73044632780968B3FBF2F258
:10107000B1FBF2F1084600F0BFFE0F2C4FF0010566
:1010800008D838B94FF0FF3000222146002500F083
:1010900007F87460284670BD70470000000000002B
:1010A00070B54EF60C5C4FF0FF36CEF2000C00F13E
:1010B0006045DCF80030C3F3022E8EF00703042BEA
:1010C00028BF0423BEF1030406FA03F321EA030157
:1010D00000F00F0338BF0024043BB0F1FF3F63442E
:1010E00006FA04F003F10C0301FA04F1C8BF05F598
:1010F000644322EA000008430001187070BD00003C
:101100004EF60C514FF6FF03CEF200010A681A406A
:1011100060F30A2242F0806040F0FD700860704782
:10112000B0B582B043F6400047F20005C4F20200B9
:10113000C4F20005016841F080510160006800F0D0
:10114000805001900198286840F480302860FFF7B3
:101150004FFF04466868C00306D4FFF749FF001B31
:10116000B0F57A7FF6D910E0286840F400302860A6
:10117000FFF73EFF044600BF6868800308D4FFF70E
:1011800037FF001BB0F57A7FF6D9032002B0B0BD5F
:10119000002002B0B0BD00002DE9F0411D46174609
:1011A00088460446FFF724FF94F84010012902D135
:1011B0000220BDE8F0810646012084F8400094F842
:1011C0004100012848D100206064422084F8410099
:1011D00020688168890645D497E80E1081624262D2
:1011E000C36201683A6921F4400111434FF0006283
:1011F00041F48001016020464146C8F828C000F053
:10120000BFFF2068816809071BD4002D46D0691CE8
:101210000ED18168090714D4816809075CBF816811
:101220005FEA01710DD481680907F2D509E000BFBA
:10123000FFF7DEFE801BA84230D8206881680907CE
:10124000F6D50821C160012084F84100002000216A
:1012500084F84010BDE8F0810220002184F840109D
:10126000BDE8F081D5B1691C0ED181688906B3D57E
:101270008168890644BF81685FEA8161ACD5816875
:101280008906F2D4A8E700BFFFF7B2FE801BA84290
:1012900004D8206881688906F6D49DE7042084F884
:1012A0004100606C40F0010060640120002184F87E
:1012B0004010BDE8F0810000F0B581B015460F4642
:1012C0000446FFF795FE94F84010012902D1022050
:1012D00001B0F0BD0646012084F8400094F84100BA
:1012E00001284FF0020033D10021616484F84100ED
:1012F00020688168890630D400222046394600F0F3
:101300003FFF786A00BB2068816889071AD4002DE6
:101310003ED0691C0DD18168890713D48168890783
:101320005CBF81685FEA81710CD481688907F2D55E
:1013300008E0FFF75DFE801BA84229D8206881687D
:101340008907F6D50221C160012084F84100002000
:10135000002184F8401001B0F0BDCDB1691C0DD161
:1013600081688906C8D58168890644BF81685FEABB
:101370008161C1D581688906F2D4BDE7FFF738FEE7
:10138000801BA84204D8206880688006F6D4B3E7A2
:10139000042084F84100606C40F00100606401208A
:1013A000002184F8401001B0F0BD000000000000F2
:1013B00010B530B1044690F84000012803D1022056
:1013C00010BD012010BD012084F840002068016894
:1013D00021F001010160204600F09AF800206064CD
:1013E00084F8410084F8400010BD000000000000B7
:1013F00070B50446FFF7FCFD34B1054694F8400093
:10140000012803D1022070BD012070BD012084F8A5
:10141000400094F8410000B320686FF0FF03A1681A
:10142000A66C026822F4F85203EB0121114301601B
:101430008168890628D5002E5BD0711C4FD1816848
:10144000890621D58168890644BF81685FEA816188
:101450001AD581688906F2D416E0002084F840008D
:10146000204600F059F8206841F28836A664A16849
:1014700002686FF0FF0322F4F85203EB01211143DD
:101480000160816889062AD44FF62F720168C0F284
:10149000FF0263681140E66831432669D4E90725F5
:1014A00041EA0361636911434FF6FE02294301607B
:1014B0004168CFF6E0721140A269194341EA064142
:1014C00011434160016841F0010101600020606446
:1014D000012184F84110002184F8401070BDFFF70D
:1014E00087FD401BB04204D8206881688906F6D485
:1014F000CAE7042084F84100606C40F00100606499
:101500000120002184F8401070BD000000000000A0
:10151000704700000000000070470000000000005D
:101520002DE9F04115460F460446FFF761FD266898
:10153000B16994F84020012A02D10220BDE8F0816F
:101540008046012084F8400094F84100012838D1F9
:101550004FF000006064D7B3222084F84100306966
:1015600001220130A0633069013060632763706934
:1015700062F39B607061B161A06B002861D085B39C
:10158000681C44D1304603E0816811F0060F0AD18F
:10159000816811F0060F01BF816811F0060F8168A4
:1015A00011F0060FF0D096F82000216B4A1C226340
:1015B0000870A06B0138A063A06B002841D02068A0
:1015C000E6E70220002184F84010BDE8F081606C5D
:1015D00040F0080060640120002184F84010BDE85C
:1015E000F081B06810F0060F4ED000BF96F82000D2
:1015F000216B4A1C22630870A06B0138A063A06BAA
:10160000F8B12068806810F0060FEFD13CE030465A
:10161000806810F0060F07D1FFF7EAFCA0EB080086
:10162000A84231D82068F3E796F82000216B4A1CC5
:1016300022630870A06B0138A063A06B08B120681A
:10164000E6E72068816889071AD4EDB1691C0DD1DD
:101650008168890714D4816889075CBF81685FEA63
:1016600081710DD481688907F2D509E0FFF7C0FCCC
:10167000A0EB0800A84207D8206881688907F5D543
:101680000221C160002007E0042084F84100606C62
:1016900040F0010060640120012184F84110002124
:1016A00084F84010BDE8F0812DE9F04115460F4661
:1016B0000446FFF79DFC266894F84010012902D1EA
:1016C0000220BDE8F0818046012084F8400094F8B3
:1016D0004100012835D14FF000006064BFB31220F3
:1016E00084F8410030690130E06230690130A06265
:1016F0006762706920F040607061E06A00285DD028
:101700007DB3681C40D1304603E000BF81684907C3
:1017100009D4816849075FBF81685FEA41718168C8
:101720005FEA4171F2D5606A411C6162007886F817
:101730002000E06A0138E062E06A00283ED02068BC
:10174000E7E70220002184F84010BDE8F081606CDA
:1017500040F0080060640120002184F84010BDE8DA
:10176000F081B06840074DD5606A411C6162007825
:1017700086F82000E06A0138E062E06AF0B1206893
:1017800080684007F0D43DE0304600BF80684007E5
:1017900007D4FFF72DFCA0EB0800A84232D8206840
:1017A000F4E7606A411C6162007886F82000E06A14
:1017B0000138E062E06A08B12068E7E720688168E4
:1017C00089071BD4F5B1691C0ED18168890715D42E
:1017D000816889075CBF81685FEA81710ED4816886
:1017E0008907F2D50AE000BFFFF702FCA0EB080072
:1017F000A84207D8206881688907F5D50221C16011
:10180000002007E0042084F84100606C40F00100F3
:1018100060640120012184F84110002184F8401007
:10182000BDE8F081000000002DE9F041002800F043
:10183000878043F608080446C4F202080D46D8F82B
:10184000F80300F00F0088420CD2D8F8F80320F01B
:101850000F002843C8F8F803D8F8F80300F00F0089
:10186000A8426DD12068810717D5410705D5D8F862
:10187000001041F4E051C8F80010010705D5D8F870
:10188000001041F46041C8F80010D8F80010A268B8
:1018900021F0F0011143C8F80010C00739D1D8F881
:1018A000F80300F00F00A8420CD9D8F8F80320F094
:1018B0000F002843C8F8F803D8F8F80300F00F0029
:1018C000A8423DD12068410707D5D8F80010E2684A
:1018D00021F4E0511143C8F80010000708D5D8F8EA
:1018E0000000216920F4604040EAC100C8F800000F
:1018F000D8F8000000F00C0142F200400829C0F2C4
:10190000F4003DD004295DD141F20020C0F27A00FC
:1019100058E06068022808D001280DD158F8081C4A
:10192000890310D40120BDE8F08158F8081C890112
:1019300009D40120BDE8F08158F8081C890702D4B9
:101940000120BDE8F081D8F8001021F00301084320
:10195000C8F80000FFF74CFB064641F2883700BF8D
:10196000D8F80000616800F00C00B0EB810F96D051
:10197000FFF73EFB801BB842F2D90320BDE8F0819F
:1019800058F8041C58F8043C58F8047C01F03F0255
:101990005902C7F3881105D4A1FB00010023FEF70B
:1019A0003BFC06E041F20020C0F27A004843B0FB65
:1019B000F2F058F8041C0222C1F3014102EB41018C
:1019C000B0FBF1F0D8F8001045F64C12C0F600025A
:1019D000C1F30311515C40F21402C2F20002C8408C
:1019E00010600F20FFF734FB0020BDE8F0810000FD
:1019F00040F21400C2F200000068704700000000CE
:101A000040F2140043F60801C2F20000C4F20201E1
:101A100045F65C1200680968C0F60002C1F3822135
:101A2000515CC8407047000040F2140043F60801C2
:101A3000C2F20000C4F2020145F65C1200680968B7
:101A4000C0F60002C1F34231515CC840704700004B
:101A500010B543F60404C4F20204606800F00C01FF
:101A600042F200400829C0F2F40007D0042918BF50
:101A700010BD41F20020C0F27A0010BD2268236838
:101A8000216802F03F025B02C1F3881105D4A1FB7B
:101A900000010023FEF7C0FB06E041F20020C0F287
:101AA0007A004843B0FBF2F021680222C1F3014101
:101AB00002EB4101B0FBF1F010BD0000000000009E
:101AC0002DE9F04182B0002858D00446007843F652
:101AD0000006C007C4F2020625D0B06800F00C0072
:101AE00004281BD0B06800F00C00082802D17068F0
:101AF000400213D46068002800F0E680B0F5A02F03
:101B000000F0FA80B0F5803F00F0FA80306820F4F1
:101B100080303060306820F48020F4E0306880034A
:101B200001D5606850B32078800718D5B06810F0F0
:101B30000C0F07D0B06800F00C00082859D170686D
:101B4000400256D43068800702D5E068012815D1DC
:101B50003068216920F0F80040EAC1003060207848
:101B600000070FD4207840071FD4A569002D00F08E
:101B70003C81B06800F00C00082871D1012002B04F
:101B8000BDE8F08160690028706F58D040F0010016
:101B90007067FFF72DFA0546706F8007E2D4FFF7F4
:101BA00027FA401B0228F7D9EAE0306C10F0805881
:101BB00008D1306C40F080503064306C00F08050C0
:101BC0000190019847F20007C4F200073868C00589
:101BD00023D4386840F480703860FFF709FA05466E
:101BE0003868C00519D4FFF703FA401B6428F7D9F9
:101BF000C6E0E0680028306854D040F00100306052
:101C0000FFF7F6F9054600BF30688007A0D4FFF75C
:101C1000EFF9401B0228F7D9B2E0A068002800F0D5
:101C20008180052800F09780012800F09880306FAF
:101C300020F001003067306F20F0040092E020F0C7
:101C400001007067FFF7D4F9054600BF706F800789
:101C50007FF588AFFFF7CCF9401B0228F6D98FE05B
:101C6000306820F080703060FFF7C2F9022D054621
:101C70000CD100BF3068800140F18F80FFF7B8F9C8
:101C8000401B02284FF00300F4D9ABE0306880011C
:101C900040F1AB80FFF7ACF9401B03284FF0030085
:101CA000F4D39FE020F001003060FFF7A1F9054672
:101CB000306880077FF553AFFFF79AF9401B022881
:101CC0004FF00300F4D98DE0306820F480303060AC
:101CD000306820F480203060FFF78AF9054600BFA5
:101CE000306880037FF51FAFFFF782F9401B64283F
:101CF0004FF00300F4D975E0306840F48020306084
:101D0000306840F480303060FFF772F9054600BF5C
:101D1000306880033FF507AFFFF76AF9401B64287E
:101D2000F6D92DE0306F20F001003067306F20F0E1
:101D300004003067FFF75CF9054641F2883700BFC1
:101D4000306F800720D5FFF753F9401BB8424FF0A2
:101D50000300F5D946E0306F40F004003067306F83
:101D600040F001003067FFF743F9054641F288373C
:101D7000306F800708D4FFF73BF9401BB842F7D912
:101D8000032002B0BDE8F081B8F1000F7FF4EDAEA2
:101D9000306C20F080503064E7E604F11C074FF609
:101DA000FF758FCFDB03084323EA050140EA821069
:101DB000A1F5803140EA0760084340F000507060B0
:101DC000306840F080703060FFF712F9044600BFC1
:101DD0003068800109D4FFF70BF9001B02284FF08F
:101DE0000300F5D902B0BDE8F081002002B0BDE8E3
:101DF000F081000000000000411E0020B0EB116FD8
:101E000001D0012070474EF21002F023CEF2000202
:101E100051604EF62351CEF200010B700721906005
:101E20001160704700000000F0B581B0A0B1044619
:101E3000406F28B9002084F87000204600F054F864
:101E4000242060672068016821F0010101602046BC
:101E500001F0D2FD012803D10125284601B0F0BDD3
:101E6000606A10B1204601F057FD206800254168E6
:101E700021F490414160816821F02A01816001686C
:101E800041F001010160E567FFF7B2F821680A68D7
:101E900012070FD50646C86980020BD4002700BF81
:101EA000FFF7A6F8801BB7EB506F20680AD1C06916
:101EB0008002F5D520206067A06784F8705028461E
:101EC00001B0F0BD0168032521F4D0710160816883
:101ED00021F00101816020206067A067002084F864
:101EE0007000284601B0F0BD7047000000000000FF
:101EF00042F20000CEF2040000686FF31F30A0F23F
:101F000011415F2900F26E8045F6ED30C0F6000009
:101F1000DFE811F0620068006E006800740068007D
:101F20007A00680080006800680068006800680047
:101F3000680068008600680060006800680068004B
:101F40006800680068006800680068006800680051
:101F5000680068008C0068006000920098006800CB
:101F60006800680068006800680068006800680031
:101F700068009E00A400AA006800B000B6006800D7
:101F8000BC00BF00C5006800680068006800680009
:101F90006800C800CB00CE006800680068006800D8
:101FA00068006800680068006800680068006800F1
:101FB00068006800D100D700680068006800680009
:101FC00068006800680068006800680068006800D1
:101FD0006800DA0003F0A8BC45F67340C0F60000C4
:101FE00003F0A2BC45F60B40C0F6000003F09CBC19
:101FF00045F66940C0F6000003F096BC45F6D9509E
:10200000C0F6000003F090BC45F61940C0F6000091
:1020100003F08ABC45F69540C0F6000003F084BC8E
:1020200045F63D40C0F6000003F07EBC45F6F730B3
:10203000C0F6000003F078BC45F6A740C0F60000EB
:1020400003F072BC45F60D60C0F6000003F06CBCF6
:1020500045F67D40C0F6000003F066BC45F6014041
:10206000C0F6000003F060BC45F6B140C0F60000C9
:1020700003F05ABC45F64740C0F6000003F054BCDC
:1020800045F65D40C0F6000003F04EBC31A003F001
:102090004BBC45F68940C0F6000003F045BC1BA0D0
:1020A00003F042BC0AA003F03FBC12A003F03CBC0A
:1020B0000AA003F039BC45F6F750C0F6000003F063
:1020C00033BC1EA003F030BC16A003F02DBC00BF33
:1020D00053544D33324837787800000053544D3311
:1020E00032463732787878206F72204637337878E6
:1020F0007800000053544D333246373678787820D4
:102100006F722046373778787800000053544D338B
:1021100032463734787878206F72204637357878B1
:102120007800000053544D33324C34527878782084
:102130006F72204C345378787800000053544D333C
:10214000324C3435787878206F72204C3436787879
:102150007800000053544D33324C302043617420DA
:102160003500000000000000FEE700000000000055
:1021700070470000000000007047000000000000F1
:102180002DE9F047D1F824C0B2F1406F18BFBCF17F
:10219000000F31D18B69D1F820E0B3B3BEF1000F4D
:1021A0005BD000688C68D1E90486CD69C461D1E94F
:1021B0000B7A002D4C6B4FEA86496FD04CEA020631
:1021C000B2F1406F43EA0603CE6843EA0E0343EAE6
:1021D000050343EA07030F6843EA0A0343EA0403DB
:1021E00043EA090343EA080343EA060343EA070212
:1021F00042617CD1BDE8F08703688F6A013F1F61AF
:102200008B69002BD1F820E0C8D1BEF1000F57D068
:1022100000688C68D1E90485CB69C461D1E90B649D
:10222000002B4F6B4FEA854965D04CEA0205B2F1AD
:10223000406F45EA0E0543EA050343EA060343EA15
:10224000040343EA0703CF6843EA090343EA0803A8
:1022500043EA07024261CDD049E04F69CC694FEAB9
:10226000874ED1E90B68002C4D6B52D04CEA020727
:1022700000683B430F682343B2F1406F43EA060313
:10228000CE6843EA080343EA050343EA0E0343EA40
:10229000060343EA07024261ACD028E042EA0C029E
:1022A00009681A4342EA0E023A4342EA0A0222430A
:1022B00042EA090242EA080211434161BDE8F0879F
:1022C000CB69ABB34CEA0205CC6A2B430D6B2343BD
:1022D0004E694C6B2B4323430068CF6843EA864327
:1022E000B2F1406F43EA070242613FF483AF4968AD
:1022F0008161BDE8F0874CEA020141EA0E013143F9
:102300002143394341EA090141EA08014161BDE83D
:10231000F08742EA0C0200681A430968324342EA35
:1023200008022A4342EA0E0211434161BDE8F087E8
:10233000BCF1000F08BFBDE8F087D1E90B7642EA97
:102340000C024B693A43496B32430068114341EA3E
:1023500083414161BDE8F087F0B5A3B00D46044666
:1023600001A838211646FDF78FFFB6F5803F08D04B
:10237000B6F5004F07D0B6F5805F40F0858020208D
:1023800002E0D82000E0522001904FF480600295D6
:1023900015AD08904FF400500490281D28214FF4EB
:1023A000807707970026CDE909660696CDE90C6689
:1023B0000E96FDF769FF0620159041F288322046FF
:1023C00029461B97CDE91366CDE91166CDE90F6665
:1023D000CDE91C661E961A96CDE920662296FEF778
:1023E0006BFF18B10125284623B0F0BD022001255E
:1023F000CDE90F00CDE9125615AE102011904FF423
:1024000080001490052015904FF080701E900FAA48
:1024100041F2883320463146FEF7BEFE0028E2D165
:1024200001A941F288322046FEF746FF00284FF00E
:102430000105D8D1301D2821FDF726FF4FF480700B
:102440001B900520159000204FF08071CDE91C00F5
:102450001E910FAA1A904FF4FA63CDE92000229042
:102460003146CDE90F05CDE91250102011904FF4FF
:10247000800014902046FEF78FFE0546002818BF06
:102480000125284623B0F0BD0125284623B0F0BD24
:10249000F0B5A3B001A90446081D2821FDF7F4FEFC
:1024A00015ADC7200190281D28214FF4807707978C
:1024B0000026CDE908660A960696CDE90C660E96CA
:1024C000FDF7E2FE0620159041F2883220462946AB
:1024D0001B97CDE91366CDE91166CDE90F66CDE90D
:1024E0001C661E961A96CDE920662296FEF7E4FE3B
:1024F00018B10125284623B0F0BD02200125CDE901
:102500000F00CDE9125615AE102011904FF4800047
:102510001490052015904FF080701E900FAA41F284
:10252000883320463146FEF737FE0028E2D101A964
:1025300041F288322046FEF7BFFE00284FF0010529
:10254000D8D1301D2821FDF79FFE44F6F0134FF43B
:1025500080701B90052015900020CDE91C004FF0E5
:1025600080711E911A900FAACDE920002290C0F22E
:102570000203CDE90F05CDE91250102011904FF460
:102580008000149020463146FEF706FE05460028DE
:1025900018BF0125284623B0F0BD00000000000050
:1025A000B0B590B0044640F21800C2F2000000211D
:1025B00000F130054FF48072CDE90511CDE903112A
:1025C00008929F2202924FF08072CDE909110B927E
:1025D000082207912846CDE90C210E9141F288325C
:1025E0000F9102A9FEF768FE30B9694641F28832C0
:1025F0002846FEF795FF10B1012010B0B0BDC3A072
:1026000003F092F99DF80000EF2825D19DF8010014
:1026100040F02001602940F0B080BEA003F084F9B2
:102620009DF802001738C1B20B290ED840F6076298
:1026300022FA01F1C90708D041B2B8A0C3A250F8EC
:10264000210052F8215003F06FF99DF80000EF28A7
:1026500002D19DF8010090E01F2840F0A6809DF86F
:10266000010032281CD1C8A003F05EF99DF80000DB
:102670001F2840F09A809DF80100322810D19DF863
:102680000200172840F0E680C1A003F04DF99DF844
:1026900000001F2840F087809DF801004FF40005DE
:1026A0001F2834D19DF80200322845D19DF803003F
:1026B000322841D145F67130C0F6000003F034F9FC
:1026C0009DF800001F2870D19DF801001F281ED121
:1026D0009DF8020032282FD19DF8030032282BD11B
:1026E0009DF80400172827D19DF80500172823D14D
:1026F00045F65B30C0F6000003F016F99DF80000C7
:102700001F2840F0FC809DF801004FF08075842860
:102710000FD19DF80200012840F09C809FA003F09B
:1027200003F99DF800001F2838D19DF801004FF4EF
:1027300000251F2840F08E809DF80200842840F07C
:1027400089809DF80300842840F084809DF804006F
:10275000012840F07F809DF80500012840F07A8034
:1027600045F64530C0F6000003F0DEF89DF80000A5
:102770004FF48015C2281AD06CE0AA286AD19DF8BF
:102780000200212866D17DA003F0CEF89DF800005C
:102790004FF000651F283FF462AF06E04FF40025BC
:1027A000C22804D056E04FF40005C22852D19DF84B
:1027B000010020284ED145F68D50C0F6000003F0F0
:1027C000B3F89DF802001638062843D8DFE800F079
:1027D000040D161F28313A0045F6EA40C0F6000005
:1027E00003F0A2F84FF4800534E045F6F540C0F65A
:1027F000000003F099F84FF400052BE045F6324055
:10280000C0F6000003F090F84FF0807522E045F626
:102810002740C0F6000003F087F84FF0007519E07C
:1028200045F61150C0F6000003F07EF84FF08065C9
:1028300010E045F61D50C0F6000003F075F84FF0AB
:10284000006507E045F62850C0F6000003F06CF87C
:102850004FF080556A4600200821002C18BF2560E3
:10286000FEF75EF940F29400C2F200000578E5B38D
:1028700040F6006040F2940144F61C02CEF20000E3
:10288000C2F20001C4F200024FF0604305E000BF55
:102890000D78D56011F8015F3DB3D0F88040E407B2
:1028A0001CBF04685FEAC4740FD100BF15682D0611
:1028B0005FBF15685FEA056515685FEA0565E7D4DF
:1028C00015682D06F2D5E3E700BF1C685CB900BFB0
:1028D0001C68002C01BF00BF1C68002C00BF04BF97
:1028E0001C68002CF0D01D70E0E740F200010A20C7
:1028F000C2F2000103F016F8002010B0B0BD4FF096
:102900008075C2283FF453AFA4E700BF524541444D
:102910002049440057494E424F4E44004E5D000846
:10292000615D0008575D00084E5D00084E5D0008BF
:102930004E5D00084E5D00084E5D00084E5D0008CB
:102940007D5D00086B5D0008745D0008000080007C
:102950000000000100000002000080000000800074
:102960000000800000008000000080000000800067
:102970000000000400000008000000105732354E2F
:10298000303147560000000041544D454C000000D6
:10299000415432355146363431000000415432350D
:1029A00053463034310000002DE9F04F8FB0064619
:1029B000002003904FF480710791BB2101914FF4E7
:1029C000006108914FF40051049126F07F4102917B
:1029D0004FF4004109914FF00071059041F28832A7
:1029E0000A9180210690CDE90B10CDE90D0040F24F
:1029F000180001A9C2F2000000F130052846FEF7D8
:102A00005BFC48B940F2E40141F28832C2F20001B5
:102A10002846FEF785FD68B145F6C4103146C0F67C
:102A2000000002F08FFA4FF47A70FEF7FDF90FB054
:102A3000BDE8F08F40F6006444F61C0589A03146DD
:102A4000CEF20004C4F20005009602F07BFA40F2D8
:102A5000E40B40F29408C2F2000B4FF0000A80260B
:102A6000C2F200084FF0604904E000BFF61BBB440F
:102A7000BA4441D03746102E28BF102750465A4638
:102A80003946FEF74DF898F800100029EED0404680
:102A900006E000BF0178E96010F8011F0029E5D0C9
:102AA000D4F88020D2071CBF22685FEAC2720ED120
:102AB000296809065FBF29685FEA016129685FEA42
:102AC0000161E7D429680906F2D5E3E700BFD9F828
:102AD000002072B900BFD9F80020002A01BF00BF52
:102AE000D9F80020002A00BF04BFD9F80020002A2E
:102AF000ECD089F80010DBE745F6641140F2E404FD
:102B00004FF0FF356FF00700C0F60001C2F200047D
:102B1000221808307828137A567A83EA050303F0DE
:102B20000F0751F8277087EA131303F00F0751F8C6
:102B3000277087EA131383EA0603967A03F00F07D8
:102B400051F8277087EA131303F00F0751F8277025
:102B500087EA131383EA0603D67A03F00F0751F8C6
:102B6000277087EA131303F00F0751F8277087EADD
:102B7000131383EA0603167B03F00F0751F827703F
:102B800087EA131303F00F0751F8277087EA13132E
:102B900083EA0603567B03F00F0751F8277087EA94
:102BA000131303F00F0751F8277087EA131383EA12
:102BB0000603967B03F00F07D27B51F8277087EA54
:102BC000131303F00F0751F8277087EA131383EAF2
:102BD000060303F00F0751F8277087EA131303F079
:102BE0000F0751F8277087EA131382EA030202F0F5
:102BF0000F0351F8233083EA121202F00F0351F849
:102C0000233083EA121583D145F675202946C0F694
:102C1000000002F097F90098B0B94AF6B330C9F64F
:102C2000D220854205D04BF60E50C9F2BD608542D8
:102C300004D145F6E830C0F6000003E045F6DB308D
:102C4000C0F6000002F070FE40F200010A20C2F25D
:102C5000000102F067FE4FF47A70FEF7E5F80FB05E
:102C6000BDE8F08F52454144204455414C2020207E
:102C7000253038580A0000002DE9F04F8FB0064685
:102C8000002105914FF48070039141F28832079042
:102C9000032001904FF4806008904FF4005004909E
:102CA00026F07F4002904FF0807009910A908020BA
:102CB0000691CDE90B0140F21800C2F2000000F1CC
:102CC0003005CDE90D1101A92846FEF7F5FA48B9FE
:102CD00040F2641141F28832C2F200012846FEF748
:102CE0001FFC50B190A0314602F02CF94FF47A70DD
:102CF000FEF79AF80FB0BDE8F08F40F6006444F696
:102D00001C058FA03146CEF20004C4F200050096E7
:102D100002F018F940F2641B40F29408C2F2000B72
:102D20004FF0000A8026C2F200084FF0604903E02D
:102D3000F61BBB44BA4441D03746102E28BF10279B
:102D400050465A463946FDF7EBFE98F80010002928
:102D5000EED0404606E000BF0178E96010F8011FA0
:102D60000029E5D0D4F88020D2071CBF22685FEA92
:102D7000C2720ED1296809065FBF29685FEA016146
:102D800029685FEA0161E7D429680906F2D5E3E71B
:102D900000BFD9F8002072B900BFD9F80020002A7E
:102DA00001BF00BFD9F80020002A00BF04BFD9F836
:102DB0000020002AECD089F80010DBE745F664110A
:102DC00040F264144FF0FF356FF00700C0F60001C9
:102DD000C2F20004221808307828137A567A83EA5F
:102DE000050303F00F0751F8277087EA131303F068
:102DF0000F0751F8277087EA131383EA0603967AC0
:102E000003F00F0751F8277087EA131303F00F0739
:102E100051F8277087EA131383EA0603D67A03F082
:102E20000F0751F8277087EA131303F00F0751F8C3
:102E3000277087EA131383EA0603167B03F00F0754
:102E400051F8277087EA131303F00F0751F8277022
:102E500087EA131383EA0603567B03F00F0751F842
:102E6000277087EA131303F00F0751F8277087EADA
:102E7000131383EA0603967B03F00F07D27B51F806
:102E8000277087EA131303F00F0751F8277087EABA
:102E9000131383EA060303F00F0751F8277087EA3C
:102EA000131303F00F0751F8277087EA131382EA10
:102EB000030202F00F0351F8233083EA121202F0EA
:102EC0000F0351F8233083EA121583D145F675209C
:102ED0002946C0F6000002F035F80098B0B94AF66D
:102EE000B330C9F6D220854205D04BF60E50C9F258
:102EF000BD60854204D145F6E830C0F6000003E02D
:102F000045F6DB30C0F6000002F00EFD40F2000195
:102F10000A20C2F2000102F005FD4FF47A70FDF7BD
:102F200083FF0FB0BDE8F08F524541442053494E16
:102F3000474C452025303858204641494C0A00006E
:102F4000524541442053494E474C4520253038587E
:102F50000A000000000000002DE9F04F9BB00B902C
:102F60004FF400404FF4004702F0A6FC8146FEF704
:102F70003FF8B9F1000F019009D14FF4004700BFAD
:102F80007F08384602F098FC0028F9D0814645F6C3
:102F9000A6200B99C0F600003A4601F0D3FF40F29C
:102FA0001801002FC2F2000100F03C8148F22035E8
:102FB00045F6641ACEF6B8554FF0FF36C0F6000A53
:102FC00000224FF0FF387C1E07F0030B09F10100CF
:102FD0000690B81E049009F102000590F81E0390B7
:102FE00009F103000290C7F1000C01F130000990D3
:102FF0000A94CDE907BC09E00C9A0B983A4448F2D0
:1030000020358242CEF6B85580F24C81100408D1AA
:1030100040F200012E20C2F20001144602F082FCB0
:10302000224600210F914FF480701390BB200D9029
:103030004FF4006014904FF4005010900C9222F066
:103040007F400E904FF4004015904FF000701191AA
:1030500041F288321291CDE91607CDE918111A9183
:1030600009980DA9FEF728F928B941F28832099884
:103070004946FEF755FA4FF0000B0A9CDDF820C0D8
:10308000F0B219F80B20824239D185EA5601F007D7
:1030900008BF71085C4527D0CBB209EB0B00427822
:1030A0009A4223D185EA51060CEB0B03CA0708BFED
:1030B0004E08991C2ED0F1B282788A4219D185EA45
:1030C0005601F20708BF7108DA1C0DD0C278C8B2E9
:1030D000824211D185EA51060BF1040BC80708BFE3
:1030E0004E085F45CCD115E00E4613E00BF1010B05
:1030F00004E00BF1020B02E00BF1030B0E46F3B2FE
:103100000C980BEB00017BA001F01CFFBB450A9C57
:1031100040F0C780DDF81CB0BBF1000F3CD099F83F
:103120000000BBF1010F80EA080000F00F015AF81F
:10313000211081EA101000F00F015AF8211081EAE5
:1031400010180699204629D00698BBF1020F007886
:1031500080EA080000F00F015AF8211081EA1010EF
:1031600000F00F015AF8211081EA1018DDE904017E
:1031700014D00598007880EA080000F00F015AF892
:10318000211081EA101000F00F015AF8211081EA95
:103190001018DDE9021001E049463846032CFFF41F
:1031A0002BAF043911F8042F04384D7882EA080255
:1031B00002F00F035AF8233083EA121202F00F03D1
:1031C0005AF8233083EA121282EA05028D7802F05F
:1031D0000F035AF8233083EA121202F00F035AF851
:1031E000233083EA121282EA0502CD7802F00F033F
:1031F0005AF8233083EA121202F00F035AF82330F0
:1032000083EA121282EA050202F00F035AF8233011
:1032100083EA121202F00F035AF8233083EA1218DD
:10322000C0D1E9E60DA8002500F128064FF4005AA8
:103230004FF4004B4FF0007801F130070DAC02E085
:103240000B98002829DD40F200012E20C2F2000177
:1032500002F068FB0F954FF480701390BB200D9027
:103260004FF400600E9541F28832CDE9140B3846D8
:103270002146CDE910A5CDF858801295C6E9005534
:10328000C6E90255FEF718F80028D9D141F2883274
:1032900038464946FEF744F9D2E74FF0FF3800229E
:1032A00000E00C9A40F200010A20C2F2000114462C
:1032B00002F038FBFDF79CFE0199411A16A001F0BF
:1032C00041FE0B98844201DA18A00AE019A002F02E
:1032D0002BFB404600F084FF40F21800C2F20000D1
:1032E000083002F021FB484602F0BEFA1BB0BDE8F0
:1032F000F08F00BF436F6D70617269736F6E2066EF
:1033000061756C742040202531307520253032588D
:1033100020253032580A0000526561642054696DDE
:1033200065203A202564206D730A00004641494C0F
:103330000000000050415353000000000000000056
:103340002DE9F04F99B005464FF4004009914FF434
:10335000004602F0B1FA38B94FF40046760830461C
:1033600002F0AAFA0028F9D0834645F6A620C0F656
:103370000000294632460A9501F0E4FDFDF738FECB
:1033800009990390022940F21801C2F2000140F0AD
:10339000E58045F6641906F003044FF0FF354FF061
:1033A000000A01F13008C0F600090027701E0990DC
:1033B0000BF101000890B01E06900BF1020007907F
:1033C000F01E05900BF10300049004E037440A98C6
:1033D000874280F2BE814FF6FF70C0F20F000742B5
:1033E00006D140F200012E20C2F2000102F09AFA4A
:1033F00014A94FF480701190BB200B904FF4006023
:1034000012904FF400500E9027F07F400C904FF434
:10341000004013904FF00070CDF834A041F2883294
:10342000CDF83CA0CDF840A081E8410440460BA96E
:10343000CDE917AAFDF740FF002840F0878141F24F
:10344000883240465946FEF76BF8002840F07E81EE
:10345000002EBBD0D4B39BF80000012C80EA0500FD
:1034600000F00F0159F8211081EA101000F00F014F
:1034700059F8211081EA1015DDE9081028D00898C4
:10348000022C007880EA050000F00F0159F82110A5
:1034900081EA101000F00F0159F8211081EA10158F
:1034A000DDE9060114D007980078684000F00F01AC
:1034B00059F8211081EA101000F00F0159F821107D
:1034C00081EA1015DDE9041002E000BF59463046DC
:1034D000099A032AFFF47AAF043900BF11F8042FC8
:1034E000043882EA05024D7802F00F0359F82330C0
:1034F00083EA121202F00F0359F8233083EA121202
:1035000082EA05028D7802F00F0359F8233083EA2E
:10351000121202F00F0359F8233083EA121282EAE2
:103520000502CD7802F00F0359F8233083EA121216
:1035300002F00F0359F8233083EA121282EA0502DF
:1035400002F00F0359F8233083EA121202F00F033E
:1035500059F8233083EA1215C0D137E70BA845F696
:10356000641800F1080A06F0030C4FF0FF354FF025
:10357000000901F13004C0F600080027701E089011
:103580000BF101000690B01E04900BF102000590B3
:10359000F01E02900BF103000190CDF81CC004E076
:1035A00037440A98874280F2D4804FF6FF70C0F209
:1035B0000F00074204D0099801280DD03DE000BF5C
:1035C00040F200012E20C2F2000102F0ABF9DDF85A
:1035D0001CC00998012830D114A94FF48070CAE9A1
:1035E0000099CAF8089041F28832119003200B909C
:1035F0004FF4806012904FF400500E9027F07F40FF
:103600000C904FF08070CDF84C90CDF8409081E850
:10361000410220460BA9CDE91799FDF74DFE002880
:1036200040F0A28041F2883220465946FDF778FFEB
:103630000028DDF81CC040F09780002EB0D0BCF10F
:10364000000F3BD09BF80000BCF1010F80EA0500A1
:1036500000F00F0158F8211081EA101000F00F015E
:1036600058F8211081EA10150699089828D0069874
:10367000BCF1020F007880EA050000F00F0158F855
:10368000211081EA101000F00F0158F8211081EA92
:103690001015DDE9040113D005980078684000F0AA
:1036A0000F0158F8211081EA101000F00F0158F8AE
:1036B000211081EA1015DDE9011001E0594630467C
:1036C000089A032AFFF46CAF043900BF11F8042FE5
:1036D000043882EA05024D7802F00F0358F82330CF
:1036E00083EA121202F00F0358F8233083EA121211
:1036F00082EA05028D7802F00F0358F8233083EA3E
:10370000121202F00F0358F8233083EA121282EAF1
:103710000502CD7802F00F0358F8233083EA121225
:1037200002F00F0358F8233083EA121282EA0502EE
:1037300002F00F0358F8233083EA121202F00F034D
:1037400058F8233083EA1215C0D129E740A002F0CF
:10375000EBF80A9EB7420DDA0027584602F084F8CB
:10376000384619B0BDE8F08F35A002F0DDF80A9EAA
:10377000B742F1DBFDF73CFC0399A0EB010840F2F6
:103780000001C2F200010A2002F0CCF834A0394650
:10379000424601F0D7FB284600F022FD40F2180017
:1037A000C2F20000083002F0BFF8B6F5800F4FF00B
:1037B000000715DB23D0B6F5000F29D0B6F1807FC6
:1037C000CBD144F678300127CFF660608542C4D073
:1037D0004AF24010C7F6E8108542BED00027BCE789
:1037E000B6F5801F23D0B6F5001FB6D141F6D40040
:1037F000C9F28A002844B0FA80F04709ADE74DF2DB
:10380000E670CAF2E2202844B0FA80F04709A4E743
:103810004CF2D8100127CCF21D2085429DD048F2F1
:10382000E550C4F6BD50854218BF002795E743F622
:10383000B410CCF268102844B0FA80F047098CE745
:103840000A4661696C202D2053696E676C65000023
:103850000A4661696C202D204475616C00000000EF
:1038600025313075202575206D730A000000000099
:10387000704700000000000080B540F2E410C2F282
:10388000000001680131016040F2E810C2F200005E
:103890000168013101600168B1F57A7F0AD30168DE
:1038A000A1F57A71016040F2EC10C2F200000168EB
:1038B00001310160FDF7A4FB80BD000000000000A5
:1038C0004EF688504FF0000CCEF20000016841F433
:1038D0007001016043F60001C4F202010A6842F07F
:1038E00001020A60C1F808C04FF6FF720B68CFF6FC
:1038F000F6621A400A6043F21002C2F200424A60C5
:103900000A6822F480220A60C1F80CC04FF00061FE
:1039100040F8801C70470000416ACA070CD18A0732
:1039200015D44A071ED40A0727D4CA0630D48A06FB
:1039300039D44A0655D541E00268D0F828C053680A
:1039400023F4003343EA0C0353608A07E9D5026885
:10395000D0F82CC0536823F4803343EA0C0353603F
:103960004A07E0D50268D0F830C0536823F48023BA
:1039700043EA0C0353600A07D7D50268D0F834C075
:10398000536823F4004343EA0C035360CA06CED5C0
:103990000268D0F838C0936823F4805343EA0C03DC
:1039A00093608A06C5D50268D0F83CC0936823F4BA
:1039B000005343EA0C0393604A0612D50268D0F81C
:1039C00040C05368BCF5801F23F4801343EA0C0306
:1039D000536006D1536823F4C00C436C43EA0C03D4
:1039E0005360090658BF70470168806C4A6822F42A
:1039F0000022104348607047B0B5054601688068F2
:103A000046F6F314D5E9032318436B690343D5F84D
:103A10001CC00868CEF6FF7443EA0C03204018432C
:103A20000860486847F2FF7320F44050C4F2000376
:103A300010434860A86999422A6A40EA02008A68ED
:103A400022F4306240EA02004FF01002886018DC75
:103A500044F6FF30C4F2000081422BDC44F2004007
:103A6000C4F2000081424AD044F60000C4F20000D3
:103A700081426BD143F69000C4F202000068010954
:103A800051E040F6FF70C4F20100814225DC47F6A8
:103A90000000C4F20000814238D047F60040C4F272
:103AA0000000814252D143F69000C4F20200006847
:103AB000810B38E044F60040C4F2000081422CD073
:103AC00045F20000C4F2000081423FD143F690006D
:103AD000C4F202000068010A25E041F20040C4F28D
:103AE0000100814224D041F20000C4F20100814271
:103AF0002CD143F69000C4F2020001681EE043F6A8
:103B00009000C4F20200006881080CE043F69000C7
:103B1000C4F202000068010B05E043F69000C4F215
:103B200002000068810945F6B412C0F6000209E0FF
:103B300043F69000C4F202000068810A45F6A41220
:103B4000C0F6000201F0030052F82020BCF5004F3F
:103B500012D1082A4FF001003AD844F60001C0F211
:103B6000E811DFE802F0051C263520353535240044
:103B7000FDF746FF41001CE0082A4FF0010027D85E
:103B800042F20041C0F2F401DFE802F005263022E3
:103B90002A2222222E00FDF733FF014626E0FDF700
:103BA00043FF410005E0FDF753FF410001E04FF402
:103BB0008031686801EB5001B1FBF0F14FF6F07015
:103BC000084022D0C1F342012A680843D060002097
:103BD0000021C5E91811B0BDFDF726FF014605E03B
:103BE000FDF736FF014601E04FF40041686801EB44
:103BF0005001B1FBF0F080B2102806D32968C860EC
:103C000000200021C5E91811B0BD01200021C5E93F
:103C10001811B0BD00000000FEE700000000000029
:103C20002DE9F04F8DB006464FF4004001F044FE00
:103C30008046FDF7DDF9B8F1000F05460CD045F6DA
:103C4000B8204FF40042C0F600003146009501F064
:103C500079F94FF4004B16E04FF400425208104639
:103C6000934601F029FE5A460028F7D0804645F6D3
:103C7000B820C0F60000314601F064F9BBF1000F36
:103C800000F06E81009548F2203945F664173546FC
:103C9000CEF6B859ABF1010C0BF0030E08F101069A
:103CA000ABF10200039008F102000490ABF10300B5
:103CB000029008F1030001902BF0030000234FF065
:103CC000FF3AC0F600074FF0FF3440420590CDF8B0
:103CD00028B00C96CDE9088ECDE906C506E000BFF8
:103CE0000B9B0C9E5B44AB4280F21C81180409D0F4
:103CF000BCF1030F18D200205146BEF1000F45D190
:103D000066E000BF40F200012E20C2F200011D4615
:103D1000E34601F007FEDC462B46DDE9088EDDF8C0
:103D200028B0BCF1030FE6D39C466FF00300DDF82A
:103D300014B000BF89EA5A015FEACA7208BF4FEAAD
:103D40005A0189EA5102CB0706EB000308BF4A0873
:103D500083F803A0043089EA5206D50708BF560845
:103D6000197189EA560A5A71F1070BEB000108BF75
:103D70004FEA560A04319E710C9EDBD10430514645
:103D80006346DDF828B0BEF1000F21D089EA510A60
:103D9000CA0708BF4FEA510ABEF1010F08F8001028
:103DA00016D089EA5A0140445FEACA7208BF4FEA56
:103DB0005A01BEF1020F80F801A001D18A4607E046
:103DC00089EA510A8170CA0708BF4FEA510A00BF49
:103DD0000B931E46454600BFF0B23146C0F58078D1
:103DE0002846D84528BFD8464246FCF751FDBBEBD4
:103DF000080B45444644EFD1DDF824E0BEF1000F46
:103E000042D0DDF82080BEF1010FDDF818C0079D1B
:103E100098F80000DDF828B080EA040000F00F01F7
:103E200057F8211081EA101000F00F0157F8211007
:103E300081EA10140C9960462ED00C98BEF1020F46
:103E4000007880EA040000F00F0157F8211081EAA1
:103E5000101000F00F0157F8211081EA1014DDE96D
:103E6000030119D004980078604000F00F0157F862
:103E7000211081EA101000F00F0157F8211081EA9B
:103E80001014DDE9011007E0DDF82080DDF828B02E
:103E900041465846DDE906C5BCF1030FFFF420AFEB
:103EA000043900BF11F8042F04384E7882EA040266
:103EB00002F00F0357F8233083EA121202F00F03C7
:103EC00057F8233083EA121282EA06028E7802F053
:103ED0000F0357F8233083EA121202F00F0357F84A
:103EE000233083EA121282EA0602CE7802F00F0330
:103EF00057F8233083EA121202F00F0357F82330E9
:103F000083EA121282EA060202F00F0357F8233006
:103F100083EA121202F00F0357F8233083EA1214D7
:103F2000C0D1DDE6009D40F200010A20C2F200018E
:103F300001F0F8FC204600F053F940F21800C2F2FC
:103F40000000083001F0F0FCFDF752F8411B0BA017
:103F500000F0F8FF40460DB0BDE8F04F01F084BC22
:103F600040F20004C2F200042E20214601F0DAFCE7
:103F7000002EF9DC4FF0FF34D5E700BF57726974AB
:103F8000652054696D65203A202564206D730A0010
:103F900040F60061CEF20001D1F88020D2071CBFAC
:103FA00009685FEAC17113D144F61C01C4F2000133
:103FB0000A68120609D40A6812065CBF0A685FEA3A
:103FC000026202D40A681206F2D5C2B2CA60704711
:103FD0004FF060410A687AB900BF0A68002A01BF41
:103FE00000BF0A68002A00BF04BF0A68002A03D184
:103FF00000BF0A68002AEFD00870D5E70000000073
:1040000082B0814654A0984616460D4601F08CFCBD
:1040100045F6DB1099E88E00C0F60000009700F02E
:1040200091FF45F607202946C0F600003246434678
:1040300009F12007009700F085FF09F110064AA05A
:104040004ECE009600F07EFF4EF62850CEF20000D5
:10405000016902684368866845694EA0009601952B
:1040600000F070FF49F6F815C2F20005AF4216D213
:1040700040F200080024C2F2000854A6600703D1F1
:104080000A20414601F04EFC57F8041B304600F070
:1040900059FFAF4203D22F2C04F10104EED340F2BA
:1040A00000050A20C2F20005294601F03BFC0A2067
:1040B0002946D9F8186001F035FC45F6875436F8E2
:1040C000101CC0F60004204600F03CFF36F80E1C21
:1040D000204600F037FF36F80C1C204600F032FF77
:1040E00036F80A1C204600F02DFF36F8081C204642
:1040F00000F028FF36F8061C204600F023FF36F8B3
:10410000041C204600F01EFF36F8021C204600F07A
:1041100019FF31882FA000F015FF45F6D8247188CB
:10412000C0F60004204600F00DFFB188204600F0E4
:1041300009FFF188204600F005FF3189204600F094
:1041400001FF7189204600F0FDFE0A20294601F09A
:10415000E9FB00BFFEE700BF0A5B486172642046CE
:1041600061756C745D0000007231323D202530387D
:10417000582C206C72203D20253038582C2070633C
:10418000203D20253038582C207073723D2025307A
:1041900038580A00626661723D253038582C206319
:1041A0006673723D253038582C20686673723D2541
:1041B0003038582C20646673723D253038582C20D6
:1041C000616673723D253038580A0000202530386A
:1041D0005800000028253034582900000000000055
:1041E000B0B5054640F21800C2F200005CA100F133
:1041F00008042A46204600F0B5FE4CF29F01C1F6A5
:1042000051518D421ADD42F61901C5F61D518D42FC
:104210002EDC4CF24B61C3F697618D4256DC4CF2BA
:10422000A001C1F651518D427DD043F2E851C3F255
:1042300093118D4240F0928054A18CE046F69C513F
:10424000CCF6EB718D422ADD44F67731CFF6606112
:104250008D424CDC46F69D51CCF6EB718D4264D01C
:1042600047F2AD51CEF676618D4277D143A172E02F
:104270004AF23F11C7F6E8118D4246DC42F61A01B8
:10428000C5F61D518D4252D04EF22C71C6F6757195
:104290008D4263D145F68331C0F600015BE043F205
:1042A0007E71C8F292118D4246D04CF29F41C8F205
:1042B000F2718D4242D04CF2D811CCF21D218D42C8
:1042C0004CD145F6BE31C0F6000144E04CF24C61E1
:1042D000C3F697618D4233D048F2E551C4F6BD5123
:1042E0008D423BD145F6CD31C0F6000133E044F6B6
:1042F0007831CFF660618D4224D042F23301C1F6AD
:10430000F6018D422AD133A125E04AF24011C7F6C9
:10431000E8118D421BD04EF2EB41C7F6EC418D42C5
:104320001CD134A117E01EA115E026A113E045F62B
:104330009131C0F600010EE02AA10CE01CA10AE0B8
:104340000AA108E045F6AF31C0F6000103E045F6EA
:104350009F31C0F600012044FBF7A1FF2046B0BD0D
:104360004352432D33323A25303858000A2A2A5412
:104370004553542D314D422A2A0000000A2A2A545E
:104380004553542D3235364D422A2A000A2A2A42F4
:104390004C414E4B2D3235364D422A2A000000004A
:1043A0000A2A2A544553542D3132384D422A2A00C4
:1043B0000A2A2A424C414E4B2D3132384D422A2A8C
:1043C000000000000A2A2A544553542D36344D4229
:1043D0002A2A00000A2A2A424C414E4B2D36344DDF
:1043E000422A2A000A2A2A544553542D33324D4278
:1043F0002A2A00000A2A2A424C414E4B2D33324DC4
:10440000422A2A0000000000D4B04EF660744FF635
:10441000B451CEF20004CFF6FF716058800312D47D
:10442000BFF34F8FBFF36F8F002044F8100CBFF322
:104430004F8FBFF36F8F605840F400306050BFF370
:104440004F8FBFF36F8F6058C00361D44FF6246065
:104450000021CFF6FF70012343F6E07B21504FF699
:104460002060CFF6FF70BFF34F8F2058C208C0F313
:10447000C906C0F34E31771E03EBD000A6F1020A45
:10448000930700F003004FEA87794FEA8A7204929B
:10449000F21E039204E000BF0029A1F1010129D01E
:1044A0000BEA4115324678B1012843EA0502226041
:1044B0003A4609D0022849EA05022260524603D052
:1044C000049A2A432260039A032EE5D345EA8275B3
:1044D000013205F1404C85F0004E05F1804800BFE7
:1044E000043A2560C4F800C0C4F800E0C4F80080B5
:1044F000F6D1D1E74FF6B451CFF6FF71BFF34F8F2E
:10450000605840F480306050BFF34F8FBFF36F8F1F
:1045100044F61C0BC4F2000BFCF782FD0DF11409EC
:104520000025CDE9095507954FF00108CDF8148015
:104530004FF4A0200690022708954FF480000B97B7
:104540000C9008200D904FF4D870CDE90E0709208B
:1045500010904846FDF7B4FAFCF7E2FD0F20072162
:10456000CDE946074FF4A05049904FF480504A904F
:1045700046A848950726FDF757F909F124005C2164
:10458000FBF782FE43F63000C4F20200016941F4F9
:1045900080210161016901F48021469146990168F9
:1045A00041F008010160006846A900F0080046904B
:1045B00046984FF4407081E88101032049900BF543
:1045C000E03046A900F579704A96FCF741FCABF162
:1045D0001C0005904FF4E130CDE90605CDE9085502
:1045E0000C200A9048460B95CDE90C55FDF71CFCB4
:1045F0000FF6B00001F098F940F214004DF6836513
:10460000C2F20000C4F21B350168A1FB05020FF6DF
:10461000B800920C00F096FCFCF7DAF9FDF768FCA4
:1046200054F82C1C54F8282C54F8243C54F8200C32
:1046300054F81C7C54F8186CCDE9000745F6562058
:104640000296C0F6000000F07DFC54F8200C78B112
:1046500040F22121C1F2110188420ED02121C1F284
:10466000110188420ED145F62360C0F600000DE02E
:1046700045F64750C0F6000008E045F6AD50C0F6DC
:10468000000003E045F63B50C0F6000001F04CF995
:10469000FDF7AEF901460FF6440000F053FCFDF7BC
:1046A000AFF901460FF6400000F04CFCFDF7BCF9F5
:1046B00001460FF6400000F045FC40F2180741F2B9
:1046C0000001C2F20007CAF20001384640F8301F6C
:1046D000FCF76EFEF8B9FCF75BF807F13000052136
:1046E00079630421B9631021F9631A2139644FF405
:1046F000A06179640121B9648021F96400213965E0
:10470000FCF776FE002800F0998345F69650C0F637
:10471000000001F009F90FF2E87001F005F940F628
:1047200000680FF2EC70CEF2000801F0FDF846A828
:104730004FF0604A00F108050424082209F1040042
:104740000490039534E045F633203968C0F6000044
:1047500000F0F8FB00220320C5E90022469038460D
:104760004FF480614D9150F8301BAA604FF4807374
:104770004C934FF40056499621F07F4147914E9259
:104780004FF080714B92CDE94F13CDE951225392F6
:1047900041F2883246A9FCF78FFD002800F0048121
:1047A00045F60330C0F6000001F0BEF8082200BF55
:1047B000DBF80000000748BFCBF80420DBF800005E
:1047C000400748BFCBF80440DBF800008006EFD577
:1047D000DBF80000000748BFCBF80420DBF800003E
:1047E000400748BFCBF80440DBF8000080065FBFFD
:1047F000DBF800005FEA8060DBF800005FEA8060C1
:1048000003D4DBF800008006EED5DBF80860A6F1E3
:104810006100C0B21A286FF02C0038BF203E50FA59
:1048200086F02A28C4D8DFE810F02D002C002C00D8
:104830002C002C002C002C002C002C002C002C0018
:104840002C002C002C002C002C002C002C002C0008
:104850002C002C002C003900430080002C002C0080
:104860002C0098002C002C002B009F002C002C000A
:10487000D0022C00B5002C002C002C002C00BA001B
:1048800061E795E74599B1F5801F01D94908459140
:104890000FF2A86000F056FB082289E74598012135
:1048A000FEF74EFD45980221FEF74AFD08227FE7FC
:1048B00039680FF2706000F045FBBB204690384627
:1048C0004FF400614D91002250F8301B48924FF494
:1048D00080734C934FF40054499421F07F414791E9
:1048E0004FF400414E914A924FF000714B92CDE946
:1048F0004F13CDE95122539241F2883246A9FCF779
:10490000DBFC48B907F1300041F288324946FCF738
:1049100007FE002800F0B98045F62C30C0F60000F4
:1049200001F002F80424082242E745F644207968A1
:10493000C0F6000000F006FB796807F130004FF484
:104940008052FDF709FD002800F0908045F61730F1
:10495000C0F6000000F0E8FF92E045A8FDF720FE59
:1049600008220020386023E745F6DF40C0F600004B
:1049700000F0DAFF07F13000FDF78AFD28B145F6B7
:10498000DE20C0F6000000F0CFFF45F6C440C0F6C0
:10499000000009E74598FEF7DFFA082208E7459886
:1049A000FFF73EF9082203E707F1300041F28832B1
:1049B0004946FCF7B5FD00287FF4F2AE00274FF41E
:1049C00080754C4605E000BFAD1B3444374400F011
:1049D000B5801026102D38BF2E4638462246314667
:1049E000FCF79EF840F29400C2F200000178002922
:1049F000EAD040F29400C2F2000006E00178CBF861
:104A00000C1010F8011F0029DED0D8F88020D20742
:104A10001CBFD8F800205FEAC27212D1DBF8001088
:104A200009065FBFDBF800105FEA0161DBF80010E8
:104A30005FEA0161E2D4DBF800100906EED5DDE79C
:104A400000BFDAF8002072B900BFDAF80020002AAF
:104A500001BF00BFDAF80020002A00BF04BFDAF867
:104A60000020002AECD08AF80010D7E77868459932
:104A700000F5805088424FF0000128BF084678605A
:104A800045F6BD40C0F600008EE600274FF4807565
:104A90004C4605E0B5EB09054C444F4400F0F1806D
:104AA0004FF01009102D38BFA94638462246494616
:104AB000FCF736F840F29400C2F2000001780029B9
:104AC000E8D040F29400C2F2000006E00178CBF892
:104AD0000C1010F8011F0029DCD0D8F88020D20774
:104AE0001CBFD8F800205FEAC27212D1DBF80010B8
:104AF00009065FBFDBF800105FEA0161DBF8001018
:104B00005FEA0161E2D4DBF800100906EED5DDE7CB
:104B100000BFDAF8002072B900BFDAF80020002ADE
:104B200001BF00BFDAF80020002A00BF04BFDAF896
:104B30000020002AECD08AF80010D7E745F664166A
:104B40004FF0FF316FF00700039DC0F6000600BF75
:104B500009EB00020830F828137A577A81EA03013A
:104B600001F00F0356F8233083EA111101F00F030F
:104B700056F8233083EA111181EA0701977A01F090
:104B80000F0356F8233083EA111101F00F0356F892
:104B9000233083EA111181EA0701D77A01F00F036C
:104BA00056F8233083EA111101F00F0356F8233031
:104BB00083EA111181EA0701177B01F00F0356F810
:104BC000233083EA111101F00F0356F8233083EAF2
:104BD000111181EA0701577B01F00F0356F82330CA
:104BE00083EA111101F00F0356F8233083EA111103
:104BF00081EA0701977B01F00F03D27B56F823303F
:104C000083EA111101F00F0356F8233083EA1111E2
:104C100081EA070101F00F0356F8233083EA1111EE
:104C200001F00F0356F8233083EA111181EA0201E3
:104C300001F00F0256F8222082EA111101F00F0252
:104C400056F8222082EA111182D145F67520C0F66D
:104C5000000000F077F940F200010A20C2F20001E2
:104C600000F060FE40F218074599C2F2000738686C
:104C700000F5807088424FF0000128BF0846386078
:104C800050E645F664144FF0FF316FF007000DF168
:104C90001409039DC0F6000409EB00020830F8284F
:104CA000137A577A81EA030101F00F0354F8233095
:104CB00083EA111101F00F0354F8233083EA111134
:104CC00081EA0701977A01F00F0354F8233083EA51
:104CD000111101F00F0354F8233083EA111181EA16
:104CE0000701D77A01F00F0354F8233083EA11113A
:104CF00001F00F0354F8233083EA111181EA070110
:104D0000177B01F00F0354F8233083EA111101F0EF
:104D10000F0354F8233083EA111181EA0701577B0E
:104D200001F00F0354F8233083EA111101F00F034F
:104D300054F8233083EA111181EA0701977B01F0CF
:104D40000F03D27B54F8233083EA111101F00F03D3
:104D500054F8233083EA111181EA070101F00F03AF
:104D600054F8233083EA111101F00F0354F8233073
:104D700083EA111181EA020101F00F0254F82220A6
:104D800082EA111101F00F0254F8222082EA111177
:104D900082D145F67520C0F6000000F0D3F840F24D
:104DA00000010A20C2F2000100F0BCFDF0B240F2A6
:104DB00018072D28C2F200074FF004044FF0080234
:104DC0003FF460AD50287FF4F3AC45F63350C0F6A5
:104DD000000000F0A9FD28210498FBF755FA41F2E4
:104DE000C8434FF480700B90052005900021CDE959
:104DF0000C114FF080700E900A910120CDE9101136
:104E0000129146AA4691C0F205034790CDE94901A7
:104E1000102048904FF480004B9007F13000494635
:104E2000FCF7BAF928B145F6F220C0F6000000F010
:104E30007BFD45F6CB40C0F60000B5E4FCF7D8FD9D
:104E4000796B0131B0FBF1F0A0FB050145F6CA20FA
:104E5000C0F60000890C00F075F840F200010A204D
:104E6000C2F2000100F05EFD45A8FDF799FB0028A5
:104E70007FF455AC0020FDF7FFFE0020FDF794FD08
:104E8000FCF7B6FD796B0131B0FBF1F0A0FB050139
:104E900045F6CA20C0F60000890C00F053F8FFF771
:104EA0003EBC00BF0A4E55434C454F2D46377878DF
:104EB0005A782044454255472044656D6F2028515B
:104EC00053504929000000000A0A436F72653D25CE
:104ED000642C202564204D487A0A000048434C4B3E
:104EE0003D25640A00000000415042313D25640A1E
:104EF00000000000415042323D25640A00000000DD
:104F00004253505F515350495F496E69740000002D
:104F1000496E66696E697465206C6F6F702E2E2EF7
:104F2000000000005245414420424C4F434B204476
:104F300055414C20253038580A0000002531307585
:104F40000A0000000FB4054B10B503A9044A0298EB
:104F500000F0EEF810BC5DF814FB0000913F000873
:104F6000000000200FB4084B10B504A902AA039852
:104F700000F0DEF8044602A9002000F070FC204694
:104F800010BC5DF814FB00005F58000802E008C880
:104F9000121F08C1002AFAD170477047002001E0B3
:104FA00001C1121F002AFBD1704700002DE9FF5FED
:104FB00082B00021DDE90430020DDDF840B003438A
:104FC00018D044F61050A2F2FF3242431514119843
:104FD00001281FD0A5EB0B00401C5FEA000A4FF030
:104FE00000064E4FDFF83891B046504615D5CAF14D
:104FF000000413E0119801244AA3012801D16FEAAB
:105000000B010298119AC0E90031C0E9024206B0D2
:10501000BDE8F09FCBF10000DFE704460021404AE5
:10502000491842EB0450CDE9001012E0E00707D028
:1050300032463B4640464946FBF73AF980468946A8
:1050400032463B4610461946FBF732F906460F46F4
:105050006410002CEAD1DDE90401DDE90023BAF196
:10506000000F06DAFBF724F942464B46FBF720F91E
:1050700005E0FBF78FF942464B46FBF78BF90446F8
:105080000E460022284BFBF745FB03D84FF0FF30BC
:10509000014607E00022254B20463146FBF77BFA0C
:1050A000FBF720FB102409E0002C0ADB0A22002376
:1050B000FBF7B2F8039B30321A55641E50EA010226
:1050C000F2D1641C039AC4F111031444119A012A09
:1050D00003D0012208430DD10AE0084304D0002088
:1050E0004FF0110B119072E7A3EB0B056D1E0DE055
:1050F0005B4504DD4FF0000205F1010504E003DA31
:105100004FF00002A5F10105002AECD00298119998
:10511000C0E90231C0E9004579E700000000144011
:105120000000F03F300000000000F0430000E03FCE
:105130002DE9FF4F95B09B468946064600250FE2B4
:10514000252877D100242746F84A0121059400E05C
:10515000044316F8013F203B01FA03F01042F7D157
:1051600030782A2811D06FF02F033078A0F1300268
:10517000092A16D8059A44F0020402EB820203EBD6
:1051800042021044761C0590EFE759F8042B059273
:10519000002A03DA504244F40054059044F002041B
:1051A000761C30782E2816D116F8010F44F004042E
:1051B0002A280DD06FF02F023078A0F13003092B90
:1051C00009D807EB870302EB4303C718761CF3E704
:1051D00059F8047B761C30786C280FD006DC4C28FC
:1051E00017D068280DD06A2814D104E0742810D094
:1051F0007A280FD10DE044F400140AE044F480143E
:1052000001E044F440147278824202D104F5801423
:10521000761C761C307866280BD013DC582877D0A3
:1052200009DC002875D04528F6D04628F4D0472858
:105230001AD19DE118E0632835D0642879D065281B
:1052400012D195E1702873D008DC6728F1D0692865
:105250006FD06E280DD06F2806D1B5E073282CD002
:10526000752875D0782874D05A46179990476D1CC8
:1052700075E1C4F30250022809D003280DD0D9F8F3
:10528000001004280DD00D6009F1040967E1D9F878
:105290000010EA17C1E90052F6E7D9F800100D80B6
:1052A000F2E70D70F0E719F8041B8DF800100020EC
:1052B0008DF80100EA46012003E059F804AB4FF0F5
:1052C000FF3061074FF0000102D40DE008F1010149
:1052D0008846B9420FDA8045F8DB1AF80810002931
:1052E000F4D108E008F1010188468142FADB1AF89E
:1052F00008100029F6D105985B46A0EB0807214667
:105300003846179A00F094FA284400EB080507E0A5
:105310004DE029E10DE01AF8010B5A461799904724
:10532000B8F10108F7D25B4621463846179A13E1D7
:1053300042E00A220092C4F302524FF0000A022A0D
:1053400008D059F804CB032A4FEAEC710AD00DE0DB
:1053500029E02AE009F1070121F00702F2E802C181
:10536000914609E00FFA8CFC4FEAEC71042A03D154
:105370004FFA8CFC4FEAEC71002907DA0A4600214B
:10538000DCF1000C61EB02012D2202E0220504D5C4
:105390002B228DF80420012203E0E20701D0202215
:1053A000F7E7904659E00A2102E010220DE01021B3
:1053B0004FF0000A00910BE010224FF0000A44F079
:1053C00004040827009203E008224FF0000A00922C
:1053D000C4F30252022A05D059F804CB0021032A53
:1053E00008D009E009F1070121F00702F2E802C143
:1053F000914605E01FFA8CFC042A01D10CF0FF0C49
:105400004FF00008220728D5702806D0009B83F0B3
:10541000100353EA0A0305D00EE040228DF8042061
:10542000012208E05CEA010206D030228DF8042057
:105430008DF8050002229046009B83F0080353EA92
:105440000A030AD15CEA010201D1620705D53022C4
:105450008DF804204FF001087F1E582804D034A096
:1054600003900EA802900DE036A0F9E7534660467F
:10547000009AFAF7D1FE84460398825C0298401E97
:10548000029002705CEA0100F0D1029806A9081AA5
:1054900000F1200A600702D524F4803400E00127DF
:1054A000574502DDA7EB0A0000E0002000EB0A01EF
:1054B000009005984144401A0590E00306D45B46ED
:1054C0002146179A059800F0B3F90544002706E035
:1054D00001A85A46C05D179990476D1C7F1C47452F
:1054E000F6DBE0030CD55B462146179A059800F0E1
:1054F0009FF9054404E030205A46179990476D1CE7
:105500000099481E00900029F5DC08E002980299F5
:105510005A460078491C0291179990476D1CBAF1C0
:105520000001AAF1010AF1DC65E10000092801008F
:105530003031323334353637383961626364656609
:1055400000000000303132333435363738394142CB
:10555000434445460000000000F058F90544761C1D
:10556000307800287FF4ECAD19B02846BDE8F08F04
:10557000620700D4062709F1070222F0070CFCE8B5
:105580000223E14603F000485FEA080C02D00FF264
:10559000702C0DE05FEA045C02D50FF2682C07E086
:1055A0005FEAC47C02D00FF2602C01E0AFF2700C15
:1055B0004FF0FF3823F00043CDF850C065280CD0E1
:1055C00006DC452809D046281DD047283DD13DE0BE
:1055D000662818D067287ED138E00021112F01DB22
:1055E000112000E0781CCDE9000106A90EA8FFF704
:1055F000DDFCDDE90F010E9A03910021009207F115
:10560000010A04914DE04FF000400097CDE90110F0
:1056100006A90EA8FFF7CAFCDDE90F0203920E9B54
:1056200011990022DDF80CA00093049211B9791CA5
:1056300000EB010AB7EB0A0004D4C0F1FF3007F118
:10564000010A0490AAEB0700019044E0012F00DA60
:1056500001270021112F01DD112000E03846CDE99E
:10566000000106A90EA8FFF7A1FCDDE90F010E9AC3
:105670000391002104910092BA4621070CD40399AA
:10568000514500DA8A46BAF1010F05DD009AAAF108
:105690000101515C302908D0B84202DA10F1040F40
:1056A00006DA0121CDE9011015E0AAF10101E9E7CF
:1056B000002805DC049901440491AAEB000102E0F2
:1056C000411C514500DD8A460499401A401C019056
:1056D0004FF000400290200704D40198504501DBB0
:1056E000CDF8048000208DF84F0002980DF14F078F
:1056F000B0F1004F25D02B200E9002984FF00208F9
:1057000000280CDA404202902D200E9007E00A217A
:105710000298FAF7AEFE3031029007F8011DB8F199
:105720000001A8F10108F2DC02980028EFD1791EEF
:105730000E980870307800F0200040F0450007F81F
:10574000020D12A8C01B00F107081498007800B1E0
:10575000012000EB0A01019801EBE071059841443A
:10576000401A401E0590E00306D45B462146179A76
:10577000059800F05DF805441498007818B15A4671
:10578000179990476D1CE00324D55B462146179A74
:10579000059800F04DF805441CE00498002807DB4C
:1057A000DDE90301884203DD0098405C179901E0C0
:1057B000179930205A469047049805F10105401C7E
:1057C00004900198401E019004D12E205A4617994A
:1057D00090476D1CBAF10001AAF1010ADDDC05E079
:1057E00017F8010B5A46179990476D1CB8F1000144
:1057F000A8F10108F4DC5B462146179A0598ABE650
:105800002D0000002B000000200000002DE9F041D9
:10581000044600251E461746880404D405E0394690
:105820002020B0476D1C641EF9D52846BDE8F081E4
:105830002DE9F041044600251E469046C80301D5D7
:10584000302700E02027880404D505E0414638468B
:10585000B0476D1C641EF9D52846BDE8F0810A6882
:10586000531C0B601070704710B5002821D0114BED
:105870000022001F196803E0814203D80A464968E4
:105880000029F9D152B11368841A9C4204D10068EE
:1058900018441060104602E0506000E0186039B112
:1058A00002680B1A934203D10B681A4402604968DC
:1058B000416010BD04000020F0B50B30154D20F004
:1058C00007010024144A0FE003688B420BD38B427C
:1058D00005D95E1A43184768C3E9006700E04368CA
:1058E000136002C004E0021D10680028ECD12046BD
:1058F000002802D1286808B10020F0BD064A0748F8
:105900001060074A121A22F00702C0E900240120A1
:105910002860D7E70800002004000020FC010020D8
:10592000F8890020FEF734BB10B5044601E0FEF70D
:105930002FFB14F8010B04490028F8D1BDE81040F2
:105940000A20FEF725BB0000000000200000000038
:10595000000000000102030406070809000000001F
:1059600001020304000000006410B71DC8206E3B54
:10597000AC30D9269041DC76F4516B6B5861B24D56
:105980003C7105502083B8ED44930FF0E8A3D6D6C0
:105990008CB361CBB0C2649BD4D2D38678E20AA028
:1059A0001CF2BDBD01000000040000000200000068
:1059B00008000000000000000400000002000000D9
:1059C0000800000052454144205155414420202008
:1059D00025303858204641494C0A007230203D207D
:1059E000253038582C207231203D20253038582C55
:1059F000207232203D20253038582C207233203D33
:105A000020253038580A007234203D20253038587F
:105A10002C207235203D20253038582C207236201D
:105A20003D20253038582C207370203D20253038FB
:105A3000580A005245414420424C4F434B202530E8
:105A400038580A00455241534520424C4F434B20A1
:105A5000253038580A00253038582025303858204D
:105A6000253038580A253038582025303858202518
:105A70003038580A0043524333323A253038580AF6
:105A800000436F72746578204D302B20722564704E
:105A900025640A00436F72746578204D30207225AA
:105AA000647025640A0052656164696E672025315F
:105AB0003075202535750A0057726974696E672044
:105AC00025313075202535750A0051535049202560
:105AD0003364204D487A0A002530345820004D4167
